{"contracts/FarmingYield.sol":{"FarmingYield":{"abi":[{"inputs":[{"internalType":"contract IERC20","name":"_stakingToken","type":"address"},{"internalType":"contract ERC20Mock","name":"_rewardToken1","type":"address"},{"internalType":"uint256","name":"_depositFee","type":"uint256"},{"internalType":"address","name":"_treasury","type":"address"},{"internalType":"uint256","name":"_reward1PerBlock","type":"uint256"},{"internalType":"uint256","name":"_lockPeriod","type":"uint256"}],"stateMutability":"nonpayable","type":"constructor"},{"anonymous":false,"inputs":[{"indexed":true,"internalType":"address","name":"user","type":"address"},{"indexed":false,"internalType":"uint256","name":"amount1","type":"uint256"}],"name":"Claim","type":"event"},{"anonymous":false,"inputs":[{"indexed":true,"internalType":"address","name":"user","type":"address"},{"indexed":false,"internalType":"uint256","name":"amount","type":"uint256"}],"name":"Deposit","type":"event"},{"anonymous":false,"inputs":[{"indexed":true,"internalType":"address","name":"previousOwner","type":"address"},{"indexed":true,"internalType":"address","name":"newOwner","type":"address"}],"name":"OwnershipTransferred","type":"event"},{"anonymous":false,"inputs":[{"indexed":true,"internalType":"address","name":"user","type":"address"},{"indexed":false,"internalType":"uint256","name":"amount","type":"uint256"}],"name":"Withdraw","type":"event"},{"inputs":[],"name":"accReward1PerShare","outputs":[{"internalType":"uint256","name":"","type":"uint256"}],"stateMutability":"view","type":"function"},{"inputs":[],"name":"claim","outputs":[],"stateMutability":"nonpayable","type":"function"},{"inputs":[{"internalType":"uint256","name":"amount","type":"uint256"}],"name":"deposit","outputs":[],"stateMutability":"nonpayable","type":"function"},{"inputs":[],"name":"depositFee","outputs":[{"internalType":"uint256","name":"","type":"uint256"}],"stateMutability":"view","type":"function"},{"inputs":[{"internalType":"address","name":"_user","type":"address"}],"name":"getFundInfo","outputs":[{"internalType":"uint256","name":"","type":"uint256"},{"internalType":"uint256","name":"","type":"uint256"}],"stateMutability":"nonpayable","type":"function"},{"inputs":[],"name":"lastRewardBlock","outputs":[{"internalType":"uint256","name":"","type":"uint256"}],"stateMutability":"view","type":"function"},{"inputs":[{"internalType":"address","name":"","type":"address"}],"name":"lockIndex","outputs":[{"internalType":"uint256","name":"","type":"uint256"}],"stateMutability":"view","type":"function"},{"inputs":[],"name":"lockPeriod","outputs":[{"internalType":"uint256","name":"","type":"uint256"}],"stateMutability":"view","type":"function"},{"inputs":[],"name":"owner","outputs":[{"internalType":"address","name":"","type":"address"}],"stateMutability":"view","type":"function"},{"inputs":[{"internalType":"address","name":"_user","type":"address"}],"name":"pendingReward","outputs":[{"internalType":"uint256","name":"","type":"uint256"}],"stateMutability":"view","type":"function"},{"inputs":[],"name":"renounceOwnership","outputs":[],"stateMutability":"nonpayable","type":"function"},{"inputs":[],"name":"reward1PerBlock","outputs":[{"internalType":"uint256","name":"","type":"uint256"}],"stateMutability":"view","type":"function"},{"inputs":[],"name":"rewardToken1","outputs":[{"internalType":"contract ERC20Mock","name":"","type":"address"}],"stateMutability":"view","type":"function"},{"inputs":[],"name":"rewardToken2","outputs":[{"internalType":"contract ERC20Mock","name":"","type":"address"}],"stateMutability":"view","type":"function"},{"inputs":[],"name":"stakingToken","outputs":[{"internalType":"contract IERC20","name":"","type":"address"}],"stateMutability":"view","type":"function"},{"inputs":[],"name":"totalStaked","outputs":[{"internalType":"uint256","name":"","type":"uint256"}],"stateMutability":"view","type":"function"},{"inputs":[{"internalType":"address","name":"newOwner","type":"address"}],"name":"transferOwnership","outputs":[],"stateMutability":"nonpayable","type":"function"},{"inputs":[],"name":"treasury","outputs":[{"internalType":"address","name":"","type":"address"}],"stateMutability":"view","type":"function"},{"inputs":[],"name":"update","outputs":[],"stateMutability":"nonpayable","type":"function"},{"inputs":[{"internalType":"address","name":"","type":"address"}],"name":"userInfo","outputs":[{"internalType":"uint256","name":"amount","type":"uint256"},{"internalType":"uint256","name":"unLockAmount","type":"uint256"},{"internalType":"uint256","name":"reward1Debt","type":"uint256"}],"stateMutability":"view","type":"function"},{"inputs":[{"internalType":"uint256","name":"amount","type":"uint256"}],"name":"withdraw","outputs":[],"stateMutability":"nonpayable","type":"function"}],"evm":{"bytecode":{"linkReferences":{},"object":"608060405262278d006006553480156200001857600080fd5b50604051620021473803806200214783398181016040528101906200003e91906200034c565b6200005e620000526200015160201b60201c565b6200015960201b60201c565b85600160006101000a81548173ffffffffffffffffffffffffffffffffffffffff021916908373ffffffffffffffffffffffffffffffffffffffff16021790555084600260006101000a81548173ffffffffffffffffffffffffffffffffffffffff021916908373ffffffffffffffffffffffffffffffffffffffff1602179055508360048190555082600860006101000a81548173ffffffffffffffffffffffffffffffffffffffff021916908373ffffffffffffffffffffffffffffffffffffffff16021790555081600781905550436009819055506000600a8190555080600681905550505050505050620003e8565b600033905090565b60008060009054906101000a900473ffffffffffffffffffffffffffffffffffffffff169050816000806101000a81548173ffffffffffffffffffffffffffffffffffffffff021916908373ffffffffffffffffffffffffffffffffffffffff1602179055508173ffffffffffffffffffffffffffffffffffffffff168173ffffffffffffffffffffffffffffffffffffffff167f8be0079c531659141344cd1fd0a4f28419497f9722a3daafe3b4186f6b6457e060405160405180910390a35050565b600080fd5b600073ffffffffffffffffffffffffffffffffffffffff82169050919050565b60006200024f8262000222565b9050919050565b6000620002638262000242565b9050919050565b620002758162000256565b81146200028157600080fd5b50565b60008151905062000295816200026a565b92915050565b6000620002a88262000242565b9050919050565b620002ba816200029b565b8114620002c657600080fd5b50565b600081519050620002da81620002af565b92915050565b6000819050919050565b620002f581620002e0565b81146200030157600080fd5b50565b6000815190506200031581620002ea565b92915050565b620003268162000242565b81146200033257600080fd5b50565b60008151905062000346816200031b565b92915050565b60008060008060008060c087890312156200036c576200036b6200021d565b5b60006200037c89828a0162000284565b96505060206200038f89828a01620002c9565b9550506040620003a289828a0162000304565b9450506060620003b589828a0162000335565b9350506080620003c889828a0162000304565b92505060a0620003db89828a0162000304565b9150509295509295509295565b611d4f80620003f86000396000f3fe608060405234801561001057600080fd5b50600436106101375760003560e01c8063715018a6116100b8578063a36e86001161007c578063a36e8600146102f9578063a9f8d18114610317578063b6b55f2514610335578063d61a47f114610351578063f2fde38b1461036f578063f40f0f521461038b57610137565b8063715018a61461028b57806372f702f314610295578063817b1cd2146102b35780638da5cb5b146102d1578063a2e62045146102ef57610137565b80634e71d92d116100ff5780634e71d92d14610209578063532a61591461021357806361d027b31461023157806367a527931461024f5780636f28d6881461026d57610137565b80631959a0021461013c5780632e1a7d4d1461016e5780633d835e011461018a5780633f1b7baa146101bb5780633fd8b02f146101eb575b600080fd5b6101566004803603810190610151919061165b565b6103bb565b604051610165939291906116a1565b60405180910390f35b61018860048036038101906101839190611704565b6103e5565b005b6101a4600480360381019061019f919061165b565b6107c2565b6040516101b2929190611731565b60405180910390f35b6101d560048036038101906101d0919061165b565b6109b8565b6040516101e2919061175a565b60405180910390f35b6101f36109d0565b604051610200919061175a565b60405180910390f35b6102116109d6565b005b61021b610c4c565b604051610228919061175a565b60405180910390f35b610239610c52565b6040516102469190611784565b60405180910390f35b610257610c78565b604051610264919061175a565b60405180910390f35b610275610c7e565b60405161028291906117fe565b60405180910390f35b610293610ca4565b005b61029d610cb8565b6040516102aa919061183a565b60405180910390f35b6102bb610cde565b6040516102c8919061175a565b60405180910390f35b6102d9610ce4565b6040516102e69190611784565b60405180910390f35b6102f7610d0d565b005b610301610eb1565b60405161030e919061175a565b60405180910390f35b61031f610eb7565b60405161032c919061175a565b60405180910390f35b61034f600480360381019061034a9190611704565b610ebd565b005b610359611388565b60405161036691906117fe565b60405180910390f35b6103896004803603810190610384919061165b565b6113ae565b005b6103a560048036038101906103a0919061165b565b611431565b6040516103b2919061175a565b60405180910390f35b600b6020528060005260406000206000915090508060000154908060010154908060020154905083565b60008111610428576040517f08c379a000000000000000000000000000000000000000000000000000000000815260040161041f906118b2565b60405180910390fd5b6000600b60003373ffffffffffffffffffffffffffffffffffffffff1673ffffffffffffffffffffffffffffffffffffffff16815260200190815260200160002090506000610476336107c2565b915050808311156104bc576040517f08c379a00000000000000000000000000000000000000000000000000000000081526004016104b390611944565b60405180910390fd5b6104c4610d0d565b60006104cf33611431565b9050600260009054906101000a900473ffffffffffffffffffffffffffffffffffffffff1673ffffffffffffffffffffffffffffffffffffffff1663a9059cbb600860009054906101000a900473ffffffffffffffffffffffffffffffffffffffff166064600a856105419190611993565b61054b9190611a04565b6040518363ffffffff1660e01b8152600401610568929190611a35565b6020604051808303816000875af1158015610587573d6000803e3d6000fd5b505050506040513d601f19601f820116820180604052508101906105ab9190611a96565b50600260009054906101000a900473ffffffffffffffffffffffffffffffffffffffff1673ffffffffffffffffffffffffffffffffffffffff1663a9059cbb336064600a856105fa9190611993565b6106049190611a04565b8461060f9190611ac3565b6040518363ffffffff1660e01b815260040161062c929190611a35565b6020604051808303816000875af115801561064b573d6000803e3d6000fd5b505050506040513d601f19601f8201168201806040525081019061066f9190611a96565b508383600001546106809190611ac3565b83600001819055508383600101600082825461069c9190611ac3565b9250508190555064e8d4a51000600a5484600001546106bb9190611993565b6106c59190611a04565b8360020181905550600160009054906101000a900473ffffffffffffffffffffffffffffffffffffffff1673ffffffffffffffffffffffffffffffffffffffff1663a9059cbb33866040518363ffffffff1660e01b815260040161072a929190611a35565b6020604051808303816000875af1158015610749573d6000803e3d6000fd5b505050506040513d601f19601f8201168201806040525081019061076d9190611a96565b503373ffffffffffffffffffffffffffffffffffffffff167f884edad9ce6fa2440d8a54cc123490eb96d2768479d49ff9c7366125a9424364856040516107b4919061175a565b60405180910390a250505050565b6000806000600b60008573ffffffffffffffffffffffffffffffffffffffff1673ffffffffffffffffffffffffffffffffffffffff16815260200190815260200160002090506000600c60008673ffffffffffffffffffffffffffffffffffffffff1673ffffffffffffffffffffffffffffffffffffffff1681526020019081526020016000205490505b816003018054905081101561094157600082600301828154811061087457610873611af7565b5b906000526020600020906002020160010154426108919190611ac3565b905060065481106108e3578260030182815481106108b2576108b1611af7565b5b9060005260206000209060020201600001548360010160008282546108d79190611b26565b9250508190555061092d565b81600c60008873ffffffffffffffffffffffffffffffffffffffff1673ffffffffffffffffffffffffffffffffffffffff1681526020019081526020016000208190555050610941565b50808061093990611b5a565b91505061084d565b816003018054905081036109945780600c60008773ffffffffffffffffffffffffffffffffffffffff1673ffffffffffffffffffffffffffffffffffffffff168152602001908152602001600020819055505b816001015482600001546109a89190611ac3565b8260010154935093505050915091565b600c6020528060005260406000206000915090505481565b60065481565b6000600b60003373ffffffffffffffffffffffffffffffffffffffff1673ffffffffffffffffffffffffffffffffffffffff1681526020019081526020016000209050610a21610d0d565b6000610a2c33611431565b9050600260009054906101000a900473ffffffffffffffffffffffffffffffffffffffff1673ffffffffffffffffffffffffffffffffffffffff1663a9059cbb600860009054906101000a900473ffffffffffffffffffffffffffffffffffffffff166064600a85610a9e9190611993565b610aa89190611a04565b6040518363ffffffff1660e01b8152600401610ac5929190611a35565b6020604051808303816000875af1158015610ae4573d6000803e3d6000fd5b505050506040513d601f19601f82011682018060405250810190610b089190611a96565b506064600a82610b189190611993565b610b229190611a04565b81610b2d9190611ac3565b9050600260009054906101000a900473ffffffffffffffffffffffffffffffffffffffff1673ffffffffffffffffffffffffffffffffffffffff1663a9059cbb33836040518363ffffffff1660e01b8152600401610b8c929190611a35565b6020604051808303816000875af1158015610bab573d6000803e3d6000fd5b505050506040513d601f19601f82011682018060405250810190610bcf9190611a96565b5064e8d4a51000600a548360000154610be89190611993565b610bf29190611a04565b82600201819055503373ffffffffffffffffffffffffffffffffffffffff167f47cee97cb7acd717b3c0aa1435d004cd5b3c8c57d70dbceb4e4458bbd60e39d482604051610c40919061175a565b60405180910390a25050565b600a5481565b600860009054906101000a900473ffffffffffffffffffffffffffffffffffffffff1681565b60045481565b600260009054906101000a900473ffffffffffffffffffffffffffffffffffffffff1681565b610cac6114ae565b610cb6600061152c565b565b600160009054906101000a900473ffffffffffffffffffffffffffffffffffffffff1681565b60055481565b60008060009054906101000a900473ffffffffffffffffffffffffffffffffffffffff16905090565b6000600160009054906101000a900473ffffffffffffffffffffffffffffffffffffffff1673ffffffffffffffffffffffffffffffffffffffff166370a08231306040518263ffffffff1660e01b8152600401610d6a9190611784565b602060405180830381865afa158015610d87573d6000803e3d6000fd5b505050506040513d601f19601f82011682018060405250810190610dab9190611bb7565b905060008103610dc2574360098190555050610eaf565b600060095443610dd29190611ac3565b9050600060075482610de49190611993565b9050600260009054906101000a900473ffffffffffffffffffffffffffffffffffffffff1673ffffffffffffffffffffffffffffffffffffffff166340c10f1930836040518363ffffffff1660e01b8152600401610e43929190611a35565b600060405180830381600087803b158015610e5d57600080fd5b505af1158015610e71573d6000803e3d6000fd5b505050508264e8d4a5100082610e879190611993565b610e919190611a04565b600a54610e9e9190611b26565b600a81905550436009819055505050505b565b60075481565b60095481565b60008111610f00576040517f08c379a0000000000000000000000000000000000000000000000000000000008152600401610ef7906118b2565b60405180910390fd5b6000600b60003373ffffffffffffffffffffffffffffffffffffffff1673ffffffffffffffffffffffffffffffffffffffff1681526020019081526020016000209050610f4b610d0d565b600081600001541115611106576000610f6333611431565b9050600260009054906101000a900473ffffffffffffffffffffffffffffffffffffffff1673ffffffffffffffffffffffffffffffffffffffff1663a9059cbb600860009054906101000a900473ffffffffffffffffffffffffffffffffffffffff166064600a85610fd59190611993565b610fdf9190611a04565b6040518363ffffffff1660e01b8152600401610ffc929190611a35565b6020604051808303816000875af115801561101b573d6000803e3d6000fd5b505050506040513d601f19601f8201168201806040525081019061103f9190611a96565b50600260009054906101000a900473ffffffffffffffffffffffffffffffffffffffff1673ffffffffffffffffffffffffffffffffffffffff1663a9059cbb336064600a8561108e9190611993565b6110989190611a04565b846110a39190611ac3565b6040518363ffffffff1660e01b81526004016110c0929190611a35565b6020604051808303816000875af11580156110df573d6000803e3d6000fd5b505050506040513d601f19601f820116820180604052508101906111039190611a96565b50505b60006064600454846111189190611993565b6111229190611a04565b9050600081846111329190611ac3565b9050600160009054906101000a900473ffffffffffffffffffffffffffffffffffffffff1673ffffffffffffffffffffffffffffffffffffffff166323b872dd3330876040518463ffffffff1660e01b815260040161119393929190611be4565b6020604051808303816000875af11580156111b2573d6000803e3d6000fd5b505050506040513d601f19601f820116820180604052508101906111d69190611a96565b50600160009054906101000a900473ffffffffffffffffffffffffffffffffffffffff1673ffffffffffffffffffffffffffffffffffffffff1663a9059cbb600860009054906101000a900473ffffffffffffffffffffffffffffffffffffffff16846040518363ffffffff1660e01b8152600401611256929190611a35565b6020604051808303816000875af1158015611275573d6000803e3d6000fd5b505050506040513d601f19601f820116820180604052508101906112999190611a96565b508083600001546112aa9190611b26565b836000018190555064e8d4a51000600a5484600001546112ca9190611993565b6112d49190611a04565b8360020181905550826003016040518060400160405280838152602001428152509080600181540180825580915050600190039060005260206000209060020201600090919091909150600082015181600001556020820151816001015550503373ffffffffffffffffffffffffffffffffffffffff167fe1fffcc4923d04b559f4d29a8bfc6cda04eb5b0d3c460751c2402c5c5cc9109c8260405161137a919061175a565b60405180910390a250505050565b600360009054906101000a900473ffffffffffffffffffffffffffffffffffffffff1681565b6113b66114ae565b600073ffffffffffffffffffffffffffffffffffffffff168173ffffffffffffffffffffffffffffffffffffffff1603611425576040517f08c379a000000000000000000000000000000000000000000000000000000000815260040161141c90611c8d565b60405180910390fd5b61142e8161152c565b50565b600080600b60008473ffffffffffffffffffffffffffffffffffffffff1673ffffffffffffffffffffffffffffffffffffffff1681526020019081526020016000209050806002015464e8d4a51000600a5483600001546114929190611993565b61149c9190611a04565b6114a69190611ac3565b915050919050565b6114b66115f0565b73ffffffffffffffffffffffffffffffffffffffff166114d4610ce4565b73ffffffffffffffffffffffffffffffffffffffff161461152a576040517f08c379a000000000000000000000000000000000000000000000000000000000815260040161152190611cf9565b60405180910390fd5b565b60008060009054906101000a900473ffffffffffffffffffffffffffffffffffffffff169050816000806101000a81548173ffffffffffffffffffffffffffffffffffffffff021916908373ffffffffffffffffffffffffffffffffffffffff1602179055508173ffffffffffffffffffffffffffffffffffffffff168173ffffffffffffffffffffffffffffffffffffffff167f8be0079c531659141344cd1fd0a4f28419497f9722a3daafe3b4186f6b6457e060405160405180910390a35050565b600033905090565b600080fd5b600073ffffffffffffffffffffffffffffffffffffffff82169050919050565b6000611628826115fd565b9050919050565b6116388161161d565b811461164357600080fd5b50565b6000813590506116558161162f565b92915050565b600060208284031215611671576116706115f8565b5b600061167f84828501611646565b91505092915050565b6000819050919050565b61169b81611688565b82525050565b60006060820190506116b66000830186611692565b6116c36020830185611692565b6116d06040830184611692565b949350505050565b6116e181611688565b81146116ec57600080fd5b50565b6000813590506116fe816116d8565b92915050565b60006020828403121561171a576117196115f8565b5b6000611728848285016116ef565b91505092915050565b60006040820190506117466000830185611692565b6117536020830184611692565b9392505050565b600060208201905061176f6000830184611692565b92915050565b61177e8161161d565b82525050565b60006020820190506117996000830184611775565b92915050565b6000819050919050565b60006117c46117bf6117ba846115fd565b61179f565b6115fd565b9050919050565b60006117d6826117a9565b9050919050565b60006117e8826117cb565b9050919050565b6117f8816117dd565b82525050565b600060208201905061181360008301846117ef565b92915050565b6000611824826117cb565b9050919050565b61183481611819565b82525050565b600060208201905061184f600083018461182b565b92915050565b600082825260208201905092915050565b7f416d6f756e74206d7573742062652067726561746572207468616e2030000000600082015250565b600061189c601d83611855565b91506118a782611866565b602082019050919050565b600060208201905081810360008301526118cb8161188f565b9050919050565b7f416d6f756e74206d757374206265206c657373207468616e207769746864726160008201527f7761626c6520616d6f756e740000000000000000000000000000000000000000602082015250565b600061192e602c83611855565b9150611939826118d2565b604082019050919050565b6000602082019050818103600083015261195d81611921565b9050919050565b7f4e487b7100000000000000000000000000000000000000000000000000000000600052601160045260246000fd5b600061199e82611688565b91506119a983611688565b92508282026119b781611688565b915082820484148315176119ce576119cd611964565b5b5092915050565b7f4e487b7100000000000000000000000000000000000000000000000000000000600052601260045260246000fd5b6000611a0f82611688565b9150611a1a83611688565b925082611a2a57611a296119d5565b5b828204905092915050565b6000604082019050611a4a6000830185611775565b611a576020830184611692565b9392505050565b60008115159050919050565b611a7381611a5e565b8114611a7e57600080fd5b50565b600081519050611a9081611a6a565b92915050565b600060208284031215611aac57611aab6115f8565b5b6000611aba84828501611a81565b91505092915050565b6000611ace82611688565b9150611ad983611688565b9250828203905081811115611af157611af0611964565b5b92915050565b7f4e487b7100000000000000000000000000000000000000000000000000000000600052603260045260246000fd5b6000611b3182611688565b9150611b3c83611688565b9250828201905080821115611b5457611b53611964565b5b92915050565b6000611b6582611688565b91507fffffffffffffffffffffffffffffffffffffffffffffffffffffffffffffffff8203611b9757611b96611964565b5b600182019050919050565b600081519050611bb1816116d8565b92915050565b600060208284031215611bcd57611bcc6115f8565b5b6000611bdb84828501611ba2565b91505092915050565b6000606082019050611bf96000830186611775565b611c066020830185611775565b611c136040830184611692565b949350505050565b7f4f776e61626c653a206e6577206f776e657220697320746865207a65726f206160008201527f6464726573730000000000000000000000000000000000000000000000000000602082015250565b6000611c77602683611855565b9150611c8282611c1b565b604082019050919050565b60006020820190508181036000830152611ca681611c6a565b9050919050565b7f4f776e61626c653a2063616c6c6572206973206e6f7420746865206f776e6572600082015250565b6000611ce3602083611855565b9150611cee82611cad565b602082019050919050565b60006020820190508181036000830152611d1281611cd6565b905091905056fea264697066735822122065a856ca644692ff1fec7b6366fd87e17915f398fc013eba508621d78743166764736f6c63430008120033","opcodes":"PUSH1 0x80 PUSH1 0x40 MSTORE PUSH3 0x278D00 PUSH1 0x6 SSTORE CALLVALUE DUP1 ISZERO PUSH3 0x18 JUMPI PUSH1 0x0 DUP1 REVERT JUMPDEST POP PUSH1 0x40 MLOAD PUSH3 0x2147 CODESIZE SUB DUP1 PUSH3 0x2147 DUP4 CODECOPY DUP2 DUP2 ADD PUSH1 0x40 MSTORE DUP2 ADD SWAP1 PUSH3 0x3E SWAP2 SWAP1 PUSH3 0x34C JUMP JUMPDEST PUSH3 0x5E PUSH3 0x52 PUSH3 0x151 PUSH1 0x20 SHL PUSH1 0x20 SHR JUMP JUMPDEST PUSH3 0x159 PUSH1 0x20 SHL PUSH1 0x20 SHR JUMP JUMPDEST DUP6 PUSH1 0x1 PUSH1 0x0 PUSH2 0x100 EXP DUP2 SLOAD DUP2 PUSH20 0xFFFFFFFFFFFFFFFFFFFFFFFFFFFFFFFFFFFFFFFF MUL NOT AND SWAP1 DUP4 PUSH20 0xFFFFFFFFFFFFFFFFFFFFFFFFFFFFFFFFFFFFFFFF AND MUL OR SWAP1 SSTORE POP DUP5 PUSH1 0x2 PUSH1 0x0 PUSH2 0x100 EXP DUP2 SLOAD DUP2 PUSH20 0xFFFFFFFFFFFFFFFFFFFFFFFFFFFFFFFFFFFFFFFF MUL NOT AND SWAP1 DUP4 PUSH20 0xFFFFFFFFFFFFFFFFFFFFFFFFFFFFFFFFFFFFFFFF AND MUL OR SWAP1 SSTORE POP DUP4 PUSH1 0x4 DUP2 SWAP1 SSTORE POP DUP3 PUSH1 0x8 PUSH1 0x0 PUSH2 0x100 EXP DUP2 SLOAD DUP2 PUSH20 0xFFFFFFFFFFFFFFFFFFFFFFFFFFFFFFFFFFFFFFFF MUL NOT AND SWAP1 DUP4 PUSH20 0xFFFFFFFFFFFFFFFFFFFFFFFFFFFFFFFFFFFFFFFF AND MUL OR SWAP1 SSTORE POP DUP2 PUSH1 0x7 DUP2 SWAP1 SSTORE POP NUMBER PUSH1 0x9 DUP2 SWAP1 SSTORE POP PUSH1 0x0 PUSH1 0xA DUP2 SWAP1 SSTORE POP DUP1 PUSH1 0x6 DUP2 SWAP1 SSTORE POP POP POP POP POP POP POP PUSH3 0x3E8 JUMP JUMPDEST PUSH1 0x0 CALLER SWAP1 POP SWAP1 JUMP JUMPDEST PUSH1 0x0 DUP1 PUSH1 0x0 SWAP1 SLOAD SWAP1 PUSH2 0x100 EXP SWAP1 DIV PUSH20 0xFFFFFFFFFFFFFFFFFFFFFFFFFFFFFFFFFFFFFFFF AND SWAP1 POP DUP2 PUSH1 0x0 DUP1 PUSH2 0x100 EXP DUP2 SLOAD DUP2 PUSH20 0xFFFFFFFFFFFFFFFFFFFFFFFFFFFFFFFFFFFFFFFF MUL NOT AND SWAP1 DUP4 PUSH20 0xFFFFFFFFFFFFFFFFFFFFFFFFFFFFFFFFFFFFFFFF AND MUL OR SWAP1 SSTORE POP DUP2 PUSH20 0xFFFFFFFFFFFFFFFFFFFFFFFFFFFFFFFFFFFFFFFF AND DUP2 PUSH20 0xFFFFFFFFFFFFFFFFFFFFFFFFFFFFFFFFFFFFFFFF AND PUSH32 0x8BE0079C531659141344CD1FD0A4F28419497F9722A3DAAFE3B4186F6B6457E0 PUSH1 0x40 MLOAD PUSH1 0x40 MLOAD DUP1 SWAP2 SUB SWAP1 LOG3 POP POP JUMP JUMPDEST PUSH1 0x0 DUP1 REVERT JUMPDEST PUSH1 0x0 PUSH20 0xFFFFFFFFFFFFFFFFFFFFFFFFFFFFFFFFFFFFFFFF DUP3 AND SWAP1 POP SWAP2 SWAP1 POP JUMP JUMPDEST PUSH1 0x0 PUSH3 0x24F DUP3 PUSH3 0x222 JUMP JUMPDEST SWAP1 POP SWAP2 SWAP1 POP JUMP JUMPDEST PUSH1 0x0 PUSH3 0x263 DUP3 PUSH3 0x242 JUMP JUMPDEST SWAP1 POP SWAP2 SWAP1 POP JUMP JUMPDEST PUSH3 0x275 DUP2 PUSH3 0x256 JUMP JUMPDEST DUP2 EQ PUSH3 0x281 JUMPI PUSH1 0x0 DUP1 REVERT JUMPDEST POP JUMP JUMPDEST PUSH1 0x0 DUP2 MLOAD SWAP1 POP PUSH3 0x295 DUP2 PUSH3 0x26A JUMP JUMPDEST SWAP3 SWAP2 POP POP JUMP JUMPDEST PUSH1 0x0 PUSH3 0x2A8 DUP3 PUSH3 0x242 JUMP JUMPDEST SWAP1 POP SWAP2 SWAP1 POP JUMP JUMPDEST PUSH3 0x2BA DUP2 PUSH3 0x29B JUMP JUMPDEST DUP2 EQ PUSH3 0x2C6 JUMPI PUSH1 0x0 DUP1 REVERT JUMPDEST POP JUMP JUMPDEST PUSH1 0x0 DUP2 MLOAD SWAP1 POP PUSH3 0x2DA DUP2 PUSH3 0x2AF JUMP JUMPDEST SWAP3 SWAP2 POP POP JUMP JUMPDEST PUSH1 0x0 DUP2 SWAP1 POP SWAP2 SWAP1 POP JUMP JUMPDEST PUSH3 0x2F5 DUP2 PUSH3 0x2E0 JUMP JUMPDEST DUP2 EQ PUSH3 0x301 JUMPI PUSH1 0x0 DUP1 REVERT JUMPDEST POP JUMP JUMPDEST PUSH1 0x0 DUP2 MLOAD SWAP1 POP PUSH3 0x315 DUP2 PUSH3 0x2EA JUMP JUMPDEST SWAP3 SWAP2 POP POP JUMP JUMPDEST PUSH3 0x326 DUP2 PUSH3 0x242 JUMP JUMPDEST DUP2 EQ PUSH3 0x332 JUMPI PUSH1 0x0 DUP1 REVERT JUMPDEST POP JUMP JUMPDEST PUSH1 0x0 DUP2 MLOAD SWAP1 POP PUSH3 0x346 DUP2 PUSH3 0x31B JUMP JUMPDEST SWAP3 SWAP2 POP POP JUMP JUMPDEST PUSH1 0x0 DUP1 PUSH1 0x0 DUP1 PUSH1 0x0 DUP1 PUSH1 0xC0 DUP8 DUP10 SUB SLT ISZERO PUSH3 0x36C JUMPI PUSH3 0x36B PUSH3 0x21D JUMP JUMPDEST JUMPDEST PUSH1 0x0 PUSH3 0x37C DUP10 DUP3 DUP11 ADD PUSH3 0x284 JUMP JUMPDEST SWAP7 POP POP PUSH1 0x20 PUSH3 0x38F DUP10 DUP3 DUP11 ADD PUSH3 0x2C9 JUMP JUMPDEST SWAP6 POP POP PUSH1 0x40 PUSH3 0x3A2 DUP10 DUP3 DUP11 ADD PUSH3 0x304 JUMP JUMPDEST SWAP5 POP POP PUSH1 0x60 PUSH3 0x3B5 DUP10 DUP3 DUP11 ADD PUSH3 0x335 JUMP JUMPDEST SWAP4 POP POP PUSH1 0x80 PUSH3 0x3C8 DUP10 DUP3 DUP11 ADD PUSH3 0x304 JUMP JUMPDEST SWAP3 POP POP PUSH1 0xA0 PUSH3 0x3DB DUP10 DUP3 DUP11 ADD PUSH3 0x304 JUMP JUMPDEST SWAP2 POP POP SWAP3 SWAP6 POP SWAP3 SWAP6 POP SWAP3 SWAP6 JUMP JUMPDEST PUSH2 0x1D4F DUP1 PUSH3 0x3F8 PUSH1 0x0 CODECOPY PUSH1 0x0 RETURN INVALID PUSH1 0x80 PUSH1 0x40 MSTORE CALLVALUE DUP1 ISZERO PUSH2 0x10 JUMPI PUSH1 0x0 DUP1 REVERT JUMPDEST POP PUSH1 0x4 CALLDATASIZE LT PUSH2 0x137 JUMPI PUSH1 0x0 CALLDATALOAD PUSH1 0xE0 SHR DUP1 PUSH4 0x715018A6 GT PUSH2 0xB8 JUMPI DUP1 PUSH4 0xA36E8600 GT PUSH2 0x7C JUMPI DUP1 PUSH4 0xA36E8600 EQ PUSH2 0x2F9 JUMPI DUP1 PUSH4 0xA9F8D181 EQ PUSH2 0x317 JUMPI DUP1 PUSH4 0xB6B55F25 EQ PUSH2 0x335 JUMPI DUP1 PUSH4 0xD61A47F1 EQ PUSH2 0x351 JUMPI DUP1 PUSH4 0xF2FDE38B EQ PUSH2 0x36F JUMPI DUP1 PUSH4 0xF40F0F52 EQ PUSH2 0x38B JUMPI PUSH2 0x137 JUMP JUMPDEST DUP1 PUSH4 0x715018A6 EQ PUSH2 0x28B JUMPI DUP1 PUSH4 0x72F702F3 EQ PUSH2 0x295 JUMPI DUP1 PUSH4 0x817B1CD2 EQ PUSH2 0x2B3 JUMPI DUP1 PUSH4 0x8DA5CB5B EQ PUSH2 0x2D1 JUMPI DUP1 PUSH4 0xA2E62045 EQ PUSH2 0x2EF JUMPI PUSH2 0x137 JUMP JUMPDEST DUP1 PUSH4 0x4E71D92D GT PUSH2 0xFF JUMPI DUP1 PUSH4 0x4E71D92D EQ PUSH2 0x209 JUMPI DUP1 PUSH4 0x532A6159 EQ PUSH2 0x213 JUMPI DUP1 PUSH4 0x61D027B3 EQ PUSH2 0x231 JUMPI DUP1 PUSH4 0x67A52793 EQ PUSH2 0x24F JUMPI DUP1 PUSH4 0x6F28D688 EQ PUSH2 0x26D JUMPI PUSH2 0x137 JUMP JUMPDEST DUP1 PUSH4 0x1959A002 EQ PUSH2 0x13C JUMPI DUP1 PUSH4 0x2E1A7D4D EQ PUSH2 0x16E JUMPI DUP1 PUSH4 0x3D835E01 EQ PUSH2 0x18A JUMPI DUP1 PUSH4 0x3F1B7BAA EQ PUSH2 0x1BB JUMPI DUP1 PUSH4 0x3FD8B02F EQ PUSH2 0x1EB JUMPI JUMPDEST PUSH1 0x0 DUP1 REVERT JUMPDEST PUSH2 0x156 PUSH1 0x4 DUP1 CALLDATASIZE SUB DUP2 ADD SWAP1 PUSH2 0x151 SWAP2 SWAP1 PUSH2 0x165B JUMP JUMPDEST PUSH2 0x3BB JUMP JUMPDEST PUSH1 0x40 MLOAD PUSH2 0x165 SWAP4 SWAP3 SWAP2 SWAP1 PUSH2 0x16A1 JUMP JUMPDEST PUSH1 0x40 MLOAD DUP1 SWAP2 SUB SWAP1 RETURN JUMPDEST PUSH2 0x188 PUSH1 0x4 DUP1 CALLDATASIZE SUB DUP2 ADD SWAP1 PUSH2 0x183 SWAP2 SWAP1 PUSH2 0x1704 JUMP JUMPDEST PUSH2 0x3E5 JUMP JUMPDEST STOP JUMPDEST PUSH2 0x1A4 PUSH1 0x4 DUP1 CALLDATASIZE SUB DUP2 ADD SWAP1 PUSH2 0x19F SWAP2 SWAP1 PUSH2 0x165B JUMP JUMPDEST PUSH2 0x7C2 JUMP JUMPDEST PUSH1 0x40 MLOAD PUSH2 0x1B2 SWAP3 SWAP2 SWAP1 PUSH2 0x1731 JUMP JUMPDEST PUSH1 0x40 MLOAD DUP1 SWAP2 SUB SWAP1 RETURN JUMPDEST PUSH2 0x1D5 PUSH1 0x4 DUP1 CALLDATASIZE SUB DUP2 ADD SWAP1 PUSH2 0x1D0 SWAP2 SWAP1 PUSH2 0x165B JUMP JUMPDEST PUSH2 0x9B8 JUMP JUMPDEST PUSH1 0x40 MLOAD PUSH2 0x1E2 SWAP2 SWAP1 PUSH2 0x175A JUMP JUMPDEST PUSH1 0x40 MLOAD DUP1 SWAP2 SUB SWAP1 RETURN JUMPDEST PUSH2 0x1F3 PUSH2 0x9D0 JUMP JUMPDEST PUSH1 0x40 MLOAD PUSH2 0x200 SWAP2 SWAP1 PUSH2 0x175A JUMP JUMPDEST PUSH1 0x40 MLOAD DUP1 SWAP2 SUB SWAP1 RETURN JUMPDEST PUSH2 0x211 PUSH2 0x9D6 JUMP JUMPDEST STOP JUMPDEST PUSH2 0x21B PUSH2 0xC4C JUMP JUMPDEST PUSH1 0x40 MLOAD PUSH2 0x228 SWAP2 SWAP1 PUSH2 0x175A JUMP JUMPDEST PUSH1 0x40 MLOAD DUP1 SWAP2 SUB SWAP1 RETURN JUMPDEST PUSH2 0x239 PUSH2 0xC52 JUMP JUMPDEST PUSH1 0x40 MLOAD PUSH2 0x246 SWAP2 SWAP1 PUSH2 0x1784 JUMP JUMPDEST PUSH1 0x40 MLOAD DUP1 SWAP2 SUB SWAP1 RETURN JUMPDEST PUSH2 0x257 PUSH2 0xC78 JUMP JUMPDEST PUSH1 0x40 MLOAD PUSH2 0x264 SWAP2 SWAP1 PUSH2 0x175A JUMP JUMPDEST PUSH1 0x40 MLOAD DUP1 SWAP2 SUB SWAP1 RETURN JUMPDEST PUSH2 0x275 PUSH2 0xC7E JUMP JUMPDEST PUSH1 0x40 MLOAD PUSH2 0x282 SWAP2 SWAP1 PUSH2 0x17FE JUMP JUMPDEST PUSH1 0x40 MLOAD DUP1 SWAP2 SUB SWAP1 RETURN JUMPDEST PUSH2 0x293 PUSH2 0xCA4 JUMP JUMPDEST STOP JUMPDEST PUSH2 0x29D PUSH2 0xCB8 JUMP JUMPDEST PUSH1 0x40 MLOAD PUSH2 0x2AA SWAP2 SWAP1 PUSH2 0x183A JUMP JUMPDEST PUSH1 0x40 MLOAD DUP1 SWAP2 SUB SWAP1 RETURN JUMPDEST PUSH2 0x2BB PUSH2 0xCDE JUMP JUMPDEST PUSH1 0x40 MLOAD PUSH2 0x2C8 SWAP2 SWAP1 PUSH2 0x175A JUMP JUMPDEST PUSH1 0x40 MLOAD DUP1 SWAP2 SUB SWAP1 RETURN JUMPDEST PUSH2 0x2D9 PUSH2 0xCE4 JUMP JUMPDEST PUSH1 0x40 MLOAD PUSH2 0x2E6 SWAP2 SWAP1 PUSH2 0x1784 JUMP JUMPDEST PUSH1 0x40 MLOAD DUP1 SWAP2 SUB SWAP1 RETURN JUMPDEST PUSH2 0x2F7 PUSH2 0xD0D JUMP JUMPDEST STOP JUMPDEST PUSH2 0x301 PUSH2 0xEB1 JUMP JUMPDEST PUSH1 0x40 MLOAD PUSH2 0x30E SWAP2 SWAP1 PUSH2 0x175A JUMP JUMPDEST PUSH1 0x40 MLOAD DUP1 SWAP2 SUB SWAP1 RETURN JUMPDEST PUSH2 0x31F PUSH2 0xEB7 JUMP JUMPDEST PUSH1 0x40 MLOAD PUSH2 0x32C SWAP2 SWAP1 PUSH2 0x175A JUMP JUMPDEST PUSH1 0x40 MLOAD DUP1 SWAP2 SUB SWAP1 RETURN JUMPDEST PUSH2 0x34F PUSH1 0x4 DUP1 CALLDATASIZE SUB DUP2 ADD SWAP1 PUSH2 0x34A SWAP2 SWAP1 PUSH2 0x1704 JUMP JUMPDEST PUSH2 0xEBD JUMP JUMPDEST STOP JUMPDEST PUSH2 0x359 PUSH2 0x1388 JUMP JUMPDEST PUSH1 0x40 MLOAD PUSH2 0x366 SWAP2 SWAP1 PUSH2 0x17FE JUMP JUMPDEST PUSH1 0x40 MLOAD DUP1 SWAP2 SUB SWAP1 RETURN JUMPDEST PUSH2 0x389 PUSH1 0x4 DUP1 CALLDATASIZE SUB DUP2 ADD SWAP1 PUSH2 0x384 SWAP2 SWAP1 PUSH2 0x165B JUMP JUMPDEST PUSH2 0x13AE JUMP JUMPDEST STOP JUMPDEST PUSH2 0x3A5 PUSH1 0x4 DUP1 CALLDATASIZE SUB DUP2 ADD SWAP1 PUSH2 0x3A0 SWAP2 SWAP1 PUSH2 0x165B JUMP JUMPDEST PUSH2 0x1431 JUMP JUMPDEST PUSH1 0x40 MLOAD PUSH2 0x3B2 SWAP2 SWAP1 PUSH2 0x175A JUMP JUMPDEST PUSH1 0x40 MLOAD DUP1 SWAP2 SUB SWAP1 RETURN JUMPDEST PUSH1 0xB PUSH1 0x20 MSTORE DUP1 PUSH1 0x0 MSTORE PUSH1 0x40 PUSH1 0x0 KECCAK256 PUSH1 0x0 SWAP2 POP SWAP1 POP DUP1 PUSH1 0x0 ADD SLOAD SWAP1 DUP1 PUSH1 0x1 ADD SLOAD SWAP1 DUP1 PUSH1 0x2 ADD SLOAD SWAP1 POP DUP4 JUMP JUMPDEST PUSH1 0x0 DUP2 GT PUSH2 0x428 JUMPI PUSH1 0x40 MLOAD PUSH32 0x8C379A000000000000000000000000000000000000000000000000000000000 DUP2 MSTORE PUSH1 0x4 ADD PUSH2 0x41F SWAP1 PUSH2 0x18B2 JUMP JUMPDEST PUSH1 0x40 MLOAD DUP1 SWAP2 SUB SWAP1 REVERT JUMPDEST PUSH1 0x0 PUSH1 0xB PUSH1 0x0 CALLER PUSH20 0xFFFFFFFFFFFFFFFFFFFFFFFFFFFFFFFFFFFFFFFF AND PUSH20 0xFFFFFFFFFFFFFFFFFFFFFFFFFFFFFFFFFFFFFFFF AND DUP2 MSTORE PUSH1 0x20 ADD SWAP1 DUP2 MSTORE PUSH1 0x20 ADD PUSH1 0x0 KECCAK256 SWAP1 POP PUSH1 0x0 PUSH2 0x476 CALLER PUSH2 0x7C2 JUMP JUMPDEST SWAP2 POP POP DUP1 DUP4 GT ISZERO PUSH2 0x4BC JUMPI PUSH1 0x40 MLOAD PUSH32 0x8C379A000000000000000000000000000000000000000000000000000000000 DUP2 MSTORE PUSH1 0x4 ADD PUSH2 0x4B3 SWAP1 PUSH2 0x1944 JUMP JUMPDEST PUSH1 0x40 MLOAD DUP1 SWAP2 SUB SWAP1 REVERT JUMPDEST PUSH2 0x4C4 PUSH2 0xD0D JUMP JUMPDEST PUSH1 0x0 PUSH2 0x4CF CALLER PUSH2 0x1431 JUMP JUMPDEST SWAP1 POP PUSH1 0x2 PUSH1 0x0 SWAP1 SLOAD SWAP1 PUSH2 0x100 EXP SWAP1 DIV PUSH20 0xFFFFFFFFFFFFFFFFFFFFFFFFFFFFFFFFFFFFFFFF AND PUSH20 0xFFFFFFFFFFFFFFFFFFFFFFFFFFFFFFFFFFFFFFFF AND PUSH4 0xA9059CBB PUSH1 0x8 PUSH1 0x0 SWAP1 SLOAD SWAP1 PUSH2 0x100 EXP SWAP1 DIV PUSH20 0xFFFFFFFFFFFFFFFFFFFFFFFFFFFFFFFFFFFFFFFF AND PUSH1 0x64 PUSH1 0xA DUP6 PUSH2 0x541 SWAP2 SWAP1 PUSH2 0x1993 JUMP JUMPDEST PUSH2 0x54B SWAP2 SWAP1 PUSH2 0x1A04 JUMP JUMPDEST PUSH1 0x40 MLOAD DUP4 PUSH4 0xFFFFFFFF AND PUSH1 0xE0 SHL DUP2 MSTORE PUSH1 0x4 ADD PUSH2 0x568 SWAP3 SWAP2 SWAP1 PUSH2 0x1A35 JUMP JUMPDEST PUSH1 0x20 PUSH1 0x40 MLOAD DUP1 DUP4 SUB DUP2 PUSH1 0x0 DUP8 GAS CALL ISZERO DUP1 ISZERO PUSH2 0x587 JUMPI RETURNDATASIZE PUSH1 0x0 DUP1 RETURNDATACOPY RETURNDATASIZE PUSH1 0x0 REVERT JUMPDEST POP POP POP POP PUSH1 0x40 MLOAD RETURNDATASIZE PUSH1 0x1F NOT PUSH1 0x1F DUP3 ADD AND DUP3 ADD DUP1 PUSH1 0x40 MSTORE POP DUP2 ADD SWAP1 PUSH2 0x5AB SWAP2 SWAP1 PUSH2 0x1A96 JUMP JUMPDEST POP PUSH1 0x2 PUSH1 0x0 SWAP1 SLOAD SWAP1 PUSH2 0x100 EXP SWAP1 DIV PUSH20 0xFFFFFFFFFFFFFFFFFFFFFFFFFFFFFFFFFFFFFFFF AND PUSH20 0xFFFFFFFFFFFFFFFFFFFFFFFFFFFFFFFFFFFFFFFF AND PUSH4 0xA9059CBB CALLER PUSH1 0x64 PUSH1 0xA DUP6 PUSH2 0x5FA SWAP2 SWAP1 PUSH2 0x1993 JUMP JUMPDEST PUSH2 0x604 SWAP2 SWAP1 PUSH2 0x1A04 JUMP JUMPDEST DUP5 PUSH2 0x60F SWAP2 SWAP1 PUSH2 0x1AC3 JUMP JUMPDEST PUSH1 0x40 MLOAD DUP4 PUSH4 0xFFFFFFFF AND PUSH1 0xE0 SHL DUP2 MSTORE PUSH1 0x4 ADD PUSH2 0x62C SWAP3 SWAP2 SWAP1 PUSH2 0x1A35 JUMP JUMPDEST PUSH1 0x20 PUSH1 0x40 MLOAD DUP1 DUP4 SUB DUP2 PUSH1 0x0 DUP8 GAS CALL ISZERO DUP1 ISZERO PUSH2 0x64B JUMPI RETURNDATASIZE PUSH1 0x0 DUP1 RETURNDATACOPY RETURNDATASIZE PUSH1 0x0 REVERT JUMPDEST POP POP POP POP PUSH1 0x40 MLOAD RETURNDATASIZE PUSH1 0x1F NOT PUSH1 0x1F DUP3 ADD AND DUP3 ADD DUP1 PUSH1 0x40 MSTORE POP DUP2 ADD SWAP1 PUSH2 0x66F SWAP2 SWAP1 PUSH2 0x1A96 JUMP JUMPDEST POP DUP4 DUP4 PUSH1 0x0 ADD SLOAD PUSH2 0x680 SWAP2 SWAP1 PUSH2 0x1AC3 JUMP JUMPDEST DUP4 PUSH1 0x0 ADD DUP2 SWAP1 SSTORE POP DUP4 DUP4 PUSH1 0x1 ADD PUSH1 0x0 DUP3 DUP3 SLOAD PUSH2 0x69C SWAP2 SWAP1 PUSH2 0x1AC3 JUMP JUMPDEST SWAP3 POP POP DUP2 SWAP1 SSTORE POP PUSH5 0xE8D4A51000 PUSH1 0xA SLOAD DUP5 PUSH1 0x0 ADD SLOAD PUSH2 0x6BB SWAP2 SWAP1 PUSH2 0x1993 JUMP JUMPDEST PUSH2 0x6C5 SWAP2 SWAP1 PUSH2 0x1A04 JUMP JUMPDEST DUP4 PUSH1 0x2 ADD DUP2 SWAP1 SSTORE POP PUSH1 0x1 PUSH1 0x0 SWAP1 SLOAD SWAP1 PUSH2 0x100 EXP SWAP1 DIV PUSH20 0xFFFFFFFFFFFFFFFFFFFFFFFFFFFFFFFFFFFFFFFF AND PUSH20 0xFFFFFFFFFFFFFFFFFFFFFFFFFFFFFFFFFFFFFFFF AND PUSH4 0xA9059CBB CALLER DUP7 PUSH1 0x40 MLOAD DUP4 PUSH4 0xFFFFFFFF AND PUSH1 0xE0 SHL DUP2 MSTORE PUSH1 0x4 ADD PUSH2 0x72A SWAP3 SWAP2 SWAP1 PUSH2 0x1A35 JUMP JUMPDEST PUSH1 0x20 PUSH1 0x40 MLOAD DUP1 DUP4 SUB DUP2 PUSH1 0x0 DUP8 GAS CALL ISZERO DUP1 ISZERO PUSH2 0x749 JUMPI RETURNDATASIZE PUSH1 0x0 DUP1 RETURNDATACOPY RETURNDATASIZE PUSH1 0x0 REVERT JUMPDEST POP POP POP POP PUSH1 0x40 MLOAD RETURNDATASIZE PUSH1 0x1F NOT PUSH1 0x1F DUP3 ADD AND DUP3 ADD DUP1 PUSH1 0x40 MSTORE POP DUP2 ADD SWAP1 PUSH2 0x76D SWAP2 SWAP1 PUSH2 0x1A96 JUMP JUMPDEST POP CALLER PUSH20 0xFFFFFFFFFFFFFFFFFFFFFFFFFFFFFFFFFFFFFFFF AND PUSH32 0x884EDAD9CE6FA2440D8A54CC123490EB96D2768479D49FF9C7366125A9424364 DUP6 PUSH1 0x40 MLOAD PUSH2 0x7B4 SWAP2 SWAP1 PUSH2 0x175A JUMP JUMPDEST PUSH1 0x40 MLOAD DUP1 SWAP2 SUB SWAP1 LOG2 POP POP POP POP JUMP JUMPDEST PUSH1 0x0 DUP1 PUSH1 0x0 PUSH1 0xB PUSH1 0x0 DUP6 PUSH20 0xFFFFFFFFFFFFFFFFFFFFFFFFFFFFFFFFFFFFFFFF AND PUSH20 0xFFFFFFFFFFFFFFFFFFFFFFFFFFFFFFFFFFFFFFFF AND DUP2 MSTORE PUSH1 0x20 ADD SWAP1 DUP2 MSTORE PUSH1 0x20 ADD PUSH1 0x0 KECCAK256 SWAP1 POP PUSH1 0x0 PUSH1 0xC PUSH1 0x0 DUP7 PUSH20 0xFFFFFFFFFFFFFFFFFFFFFFFFFFFFFFFFFFFFFFFF AND PUSH20 0xFFFFFFFFFFFFFFFFFFFFFFFFFFFFFFFFFFFFFFFF AND DUP2 MSTORE PUSH1 0x20 ADD SWAP1 DUP2 MSTORE PUSH1 0x20 ADD PUSH1 0x0 KECCAK256 SLOAD SWAP1 POP JUMPDEST DUP2 PUSH1 0x3 ADD DUP1 SLOAD SWAP1 POP DUP2 LT ISZERO PUSH2 0x941 JUMPI PUSH1 0x0 DUP3 PUSH1 0x3 ADD DUP3 DUP2 SLOAD DUP2 LT PUSH2 0x874 JUMPI PUSH2 0x873 PUSH2 0x1AF7 JUMP JUMPDEST JUMPDEST SWAP1 PUSH1 0x0 MSTORE PUSH1 0x20 PUSH1 0x0 KECCAK256 SWAP1 PUSH1 0x2 MUL ADD PUSH1 0x1 ADD SLOAD TIMESTAMP PUSH2 0x891 SWAP2 SWAP1 PUSH2 0x1AC3 JUMP JUMPDEST SWAP1 POP PUSH1 0x6 SLOAD DUP2 LT PUSH2 0x8E3 JUMPI DUP3 PUSH1 0x3 ADD DUP3 DUP2 SLOAD DUP2 LT PUSH2 0x8B2 JUMPI PUSH2 0x8B1 PUSH2 0x1AF7 JUMP JUMPDEST JUMPDEST SWAP1 PUSH1 0x0 MSTORE PUSH1 0x20 PUSH1 0x0 KECCAK256 SWAP1 PUSH1 0x2 MUL ADD PUSH1 0x0 ADD SLOAD DUP4 PUSH1 0x1 ADD PUSH1 0x0 DUP3 DUP3 SLOAD PUSH2 0x8D7 SWAP2 SWAP1 PUSH2 0x1B26 JUMP JUMPDEST SWAP3 POP POP DUP2 SWAP1 SSTORE POP PUSH2 0x92D JUMP JUMPDEST DUP2 PUSH1 0xC PUSH1 0x0 DUP9 PUSH20 0xFFFFFFFFFFFFFFFFFFFFFFFFFFFFFFFFFFFFFFFF AND PUSH20 0xFFFFFFFFFFFFFFFFFFFFFFFFFFFFFFFFFFFFFFFF AND DUP2 MSTORE PUSH1 0x20 ADD SWAP1 DUP2 MSTORE PUSH1 0x20 ADD PUSH1 0x0 KECCAK256 DUP2 SWAP1 SSTORE POP POP PUSH2 0x941 JUMP JUMPDEST POP DUP1 DUP1 PUSH2 0x939 SWAP1 PUSH2 0x1B5A JUMP JUMPDEST SWAP2 POP POP PUSH2 0x84D JUMP JUMPDEST DUP2 PUSH1 0x3 ADD DUP1 SLOAD SWAP1 POP DUP2 SUB PUSH2 0x994 JUMPI DUP1 PUSH1 0xC PUSH1 0x0 DUP8 PUSH20 0xFFFFFFFFFFFFFFFFFFFFFFFFFFFFFFFFFFFFFFFF AND PUSH20 0xFFFFFFFFFFFFFFFFFFFFFFFFFFFFFFFFFFFFFFFF AND DUP2 MSTORE PUSH1 0x20 ADD SWAP1 DUP2 MSTORE PUSH1 0x20 ADD PUSH1 0x0 KECCAK256 DUP2 SWAP1 SSTORE POP JUMPDEST DUP2 PUSH1 0x1 ADD SLOAD DUP3 PUSH1 0x0 ADD SLOAD PUSH2 0x9A8 SWAP2 SWAP1 PUSH2 0x1AC3 JUMP JUMPDEST DUP3 PUSH1 0x1 ADD SLOAD SWAP4 POP SWAP4 POP POP POP SWAP2 POP SWAP2 JUMP JUMPDEST PUSH1 0xC PUSH1 0x20 MSTORE DUP1 PUSH1 0x0 MSTORE PUSH1 0x40 PUSH1 0x0 KECCAK256 PUSH1 0x0 SWAP2 POP SWAP1 POP SLOAD DUP2 JUMP JUMPDEST PUSH1 0x6 SLOAD DUP2 JUMP JUMPDEST PUSH1 0x0 PUSH1 0xB PUSH1 0x0 CALLER PUSH20 0xFFFFFFFFFFFFFFFFFFFFFFFFFFFFFFFFFFFFFFFF AND PUSH20 0xFFFFFFFFFFFFFFFFFFFFFFFFFFFFFFFFFFFFFFFF AND DUP2 MSTORE PUSH1 0x20 ADD SWAP1 DUP2 MSTORE PUSH1 0x20 ADD PUSH1 0x0 KECCAK256 SWAP1 POP PUSH2 0xA21 PUSH2 0xD0D JUMP JUMPDEST PUSH1 0x0 PUSH2 0xA2C CALLER PUSH2 0x1431 JUMP JUMPDEST SWAP1 POP PUSH1 0x2 PUSH1 0x0 SWAP1 SLOAD SWAP1 PUSH2 0x100 EXP SWAP1 DIV PUSH20 0xFFFFFFFFFFFFFFFFFFFFFFFFFFFFFFFFFFFFFFFF AND PUSH20 0xFFFFFFFFFFFFFFFFFFFFFFFFFFFFFFFFFFFFFFFF AND PUSH4 0xA9059CBB PUSH1 0x8 PUSH1 0x0 SWAP1 SLOAD SWAP1 PUSH2 0x100 EXP SWAP1 DIV PUSH20 0xFFFFFFFFFFFFFFFFFFFFFFFFFFFFFFFFFFFFFFFF AND PUSH1 0x64 PUSH1 0xA DUP6 PUSH2 0xA9E SWAP2 SWAP1 PUSH2 0x1993 JUMP JUMPDEST PUSH2 0xAA8 SWAP2 SWAP1 PUSH2 0x1A04 JUMP JUMPDEST PUSH1 0x40 MLOAD DUP4 PUSH4 0xFFFFFFFF AND PUSH1 0xE0 SHL DUP2 MSTORE PUSH1 0x4 ADD PUSH2 0xAC5 SWAP3 SWAP2 SWAP1 PUSH2 0x1A35 JUMP JUMPDEST PUSH1 0x20 PUSH1 0x40 MLOAD DUP1 DUP4 SUB DUP2 PUSH1 0x0 DUP8 GAS CALL ISZERO DUP1 ISZERO PUSH2 0xAE4 JUMPI RETURNDATASIZE PUSH1 0x0 DUP1 RETURNDATACOPY RETURNDATASIZE PUSH1 0x0 REVERT JUMPDEST POP POP POP POP PUSH1 0x40 MLOAD RETURNDATASIZE PUSH1 0x1F NOT PUSH1 0x1F DUP3 ADD AND DUP3 ADD DUP1 PUSH1 0x40 MSTORE POP DUP2 ADD SWAP1 PUSH2 0xB08 SWAP2 SWAP1 PUSH2 0x1A96 JUMP JUMPDEST POP PUSH1 0x64 PUSH1 0xA DUP3 PUSH2 0xB18 SWAP2 SWAP1 PUSH2 0x1993 JUMP JUMPDEST PUSH2 0xB22 SWAP2 SWAP1 PUSH2 0x1A04 JUMP JUMPDEST DUP2 PUSH2 0xB2D SWAP2 SWAP1 PUSH2 0x1AC3 JUMP JUMPDEST SWAP1 POP PUSH1 0x2 PUSH1 0x0 SWAP1 SLOAD SWAP1 PUSH2 0x100 EXP SWAP1 DIV PUSH20 0xFFFFFFFFFFFFFFFFFFFFFFFFFFFFFFFFFFFFFFFF AND PUSH20 0xFFFFFFFFFFFFFFFFFFFFFFFFFFFFFFFFFFFFFFFF AND PUSH4 0xA9059CBB CALLER DUP4 PUSH1 0x40 MLOAD DUP4 PUSH4 0xFFFFFFFF AND PUSH1 0xE0 SHL DUP2 MSTORE PUSH1 0x4 ADD PUSH2 0xB8C SWAP3 SWAP2 SWAP1 PUSH2 0x1A35 JUMP JUMPDEST PUSH1 0x20 PUSH1 0x40 MLOAD DUP1 DUP4 SUB DUP2 PUSH1 0x0 DUP8 GAS CALL ISZERO DUP1 ISZERO PUSH2 0xBAB JUMPI RETURNDATASIZE PUSH1 0x0 DUP1 RETURNDATACOPY RETURNDATASIZE PUSH1 0x0 REVERT JUMPDEST POP POP POP POP PUSH1 0x40 MLOAD RETURNDATASIZE PUSH1 0x1F NOT PUSH1 0x1F DUP3 ADD AND DUP3 ADD DUP1 PUSH1 0x40 MSTORE POP DUP2 ADD SWAP1 PUSH2 0xBCF SWAP2 SWAP1 PUSH2 0x1A96 JUMP JUMPDEST POP PUSH5 0xE8D4A51000 PUSH1 0xA SLOAD DUP4 PUSH1 0x0 ADD SLOAD PUSH2 0xBE8 SWAP2 SWAP1 PUSH2 0x1993 JUMP JUMPDEST PUSH2 0xBF2 SWAP2 SWAP1 PUSH2 0x1A04 JUMP JUMPDEST DUP3 PUSH1 0x2 ADD DUP2 SWAP1 SSTORE POP CALLER PUSH20 0xFFFFFFFFFFFFFFFFFFFFFFFFFFFFFFFFFFFFFFFF AND PUSH32 0x47CEE97CB7ACD717B3C0AA1435D004CD5B3C8C57D70DBCEB4E4458BBD60E39D4 DUP3 PUSH1 0x40 MLOAD PUSH2 0xC40 SWAP2 SWAP1 PUSH2 0x175A JUMP JUMPDEST PUSH1 0x40 MLOAD DUP1 SWAP2 SUB SWAP1 LOG2 POP POP JUMP JUMPDEST PUSH1 0xA SLOAD DUP2 JUMP JUMPDEST PUSH1 0x8 PUSH1 0x0 SWAP1 SLOAD SWAP1 PUSH2 0x100 EXP SWAP1 DIV PUSH20 0xFFFFFFFFFFFFFFFFFFFFFFFFFFFFFFFFFFFFFFFF AND DUP2 JUMP JUMPDEST PUSH1 0x4 SLOAD DUP2 JUMP JUMPDEST PUSH1 0x2 PUSH1 0x0 SWAP1 SLOAD SWAP1 PUSH2 0x100 EXP SWAP1 DIV PUSH20 0xFFFFFFFFFFFFFFFFFFFFFFFFFFFFFFFFFFFFFFFF AND DUP2 JUMP JUMPDEST PUSH2 0xCAC PUSH2 0x14AE JUMP JUMPDEST PUSH2 0xCB6 PUSH1 0x0 PUSH2 0x152C JUMP JUMPDEST JUMP JUMPDEST PUSH1 0x1 PUSH1 0x0 SWAP1 SLOAD SWAP1 PUSH2 0x100 EXP SWAP1 DIV PUSH20 0xFFFFFFFFFFFFFFFFFFFFFFFFFFFFFFFFFFFFFFFF AND DUP2 JUMP JUMPDEST PUSH1 0x5 SLOAD DUP2 JUMP JUMPDEST PUSH1 0x0 DUP1 PUSH1 0x0 SWAP1 SLOAD SWAP1 PUSH2 0x100 EXP SWAP1 DIV PUSH20 0xFFFFFFFFFFFFFFFFFFFFFFFFFFFFFFFFFFFFFFFF AND SWAP1 POP SWAP1 JUMP JUMPDEST PUSH1 0x0 PUSH1 0x1 PUSH1 0x0 SWAP1 SLOAD SWAP1 PUSH2 0x100 EXP SWAP1 DIV PUSH20 0xFFFFFFFFFFFFFFFFFFFFFFFFFFFFFFFFFFFFFFFF AND PUSH20 0xFFFFFFFFFFFFFFFFFFFFFFFFFFFFFFFFFFFFFFFF AND PUSH4 0x70A08231 ADDRESS PUSH1 0x40 MLOAD DUP3 PUSH4 0xFFFFFFFF AND PUSH1 0xE0 SHL DUP2 MSTORE PUSH1 0x4 ADD PUSH2 0xD6A SWAP2 SWAP1 PUSH2 0x1784 JUMP JUMPDEST PUSH1 0x20 PUSH1 0x40 MLOAD DUP1 DUP4 SUB DUP2 DUP7 GAS STATICCALL ISZERO DUP1 ISZERO PUSH2 0xD87 JUMPI RETURNDATASIZE PUSH1 0x0 DUP1 RETURNDATACOPY RETURNDATASIZE PUSH1 0x0 REVERT JUMPDEST POP POP POP POP PUSH1 0x40 MLOAD RETURNDATASIZE PUSH1 0x1F NOT PUSH1 0x1F DUP3 ADD AND DUP3 ADD DUP1 PUSH1 0x40 MSTORE POP DUP2 ADD SWAP1 PUSH2 0xDAB SWAP2 SWAP1 PUSH2 0x1BB7 JUMP JUMPDEST SWAP1 POP PUSH1 0x0 DUP2 SUB PUSH2 0xDC2 JUMPI NUMBER PUSH1 0x9 DUP2 SWAP1 SSTORE POP POP PUSH2 0xEAF JUMP JUMPDEST PUSH1 0x0 PUSH1 0x9 SLOAD NUMBER PUSH2 0xDD2 SWAP2 SWAP1 PUSH2 0x1AC3 JUMP JUMPDEST SWAP1 POP PUSH1 0x0 PUSH1 0x7 SLOAD DUP3 PUSH2 0xDE4 SWAP2 SWAP1 PUSH2 0x1993 JUMP JUMPDEST SWAP1 POP PUSH1 0x2 PUSH1 0x0 SWAP1 SLOAD SWAP1 PUSH2 0x100 EXP SWAP1 DIV PUSH20 0xFFFFFFFFFFFFFFFFFFFFFFFFFFFFFFFFFFFFFFFF AND PUSH20 0xFFFFFFFFFFFFFFFFFFFFFFFFFFFFFFFFFFFFFFFF AND PUSH4 0x40C10F19 ADDRESS DUP4 PUSH1 0x40 MLOAD DUP4 PUSH4 0xFFFFFFFF AND PUSH1 0xE0 SHL DUP2 MSTORE PUSH1 0x4 ADD PUSH2 0xE43 SWAP3 SWAP2 SWAP1 PUSH2 0x1A35 JUMP JUMPDEST PUSH1 0x0 PUSH1 0x40 MLOAD DUP1 DUP4 SUB DUP2 PUSH1 0x0 DUP8 DUP1 EXTCODESIZE ISZERO DUP1 ISZERO PUSH2 0xE5D JUMPI PUSH1 0x0 DUP1 REVERT JUMPDEST POP GAS CALL ISZERO DUP1 ISZERO PUSH2 0xE71 JUMPI RETURNDATASIZE PUSH1 0x0 DUP1 RETURNDATACOPY RETURNDATASIZE PUSH1 0x0 REVERT JUMPDEST POP POP POP POP DUP3 PUSH5 0xE8D4A51000 DUP3 PUSH2 0xE87 SWAP2 SWAP1 PUSH2 0x1993 JUMP JUMPDEST PUSH2 0xE91 SWAP2 SWAP1 PUSH2 0x1A04 JUMP JUMPDEST PUSH1 0xA SLOAD PUSH2 0xE9E SWAP2 SWAP1 PUSH2 0x1B26 JUMP JUMPDEST PUSH1 0xA DUP2 SWAP1 SSTORE POP NUMBER PUSH1 0x9 DUP2 SWAP1 SSTORE POP POP POP POP JUMPDEST JUMP JUMPDEST PUSH1 0x7 SLOAD DUP2 JUMP JUMPDEST PUSH1 0x9 SLOAD DUP2 JUMP JUMPDEST PUSH1 0x0 DUP2 GT PUSH2 0xF00 JUMPI PUSH1 0x40 MLOAD PUSH32 0x8C379A000000000000000000000000000000000000000000000000000000000 DUP2 MSTORE PUSH1 0x4 ADD PUSH2 0xEF7 SWAP1 PUSH2 0x18B2 JUMP JUMPDEST PUSH1 0x40 MLOAD DUP1 SWAP2 SUB SWAP1 REVERT JUMPDEST PUSH1 0x0 PUSH1 0xB PUSH1 0x0 CALLER PUSH20 0xFFFFFFFFFFFFFFFFFFFFFFFFFFFFFFFFFFFFFFFF AND PUSH20 0xFFFFFFFFFFFFFFFFFFFFFFFFFFFFFFFFFFFFFFFF AND DUP2 MSTORE PUSH1 0x20 ADD SWAP1 DUP2 MSTORE PUSH1 0x20 ADD PUSH1 0x0 KECCAK256 SWAP1 POP PUSH2 0xF4B PUSH2 0xD0D JUMP JUMPDEST PUSH1 0x0 DUP2 PUSH1 0x0 ADD SLOAD GT ISZERO PUSH2 0x1106 JUMPI PUSH1 0x0 PUSH2 0xF63 CALLER PUSH2 0x1431 JUMP JUMPDEST SWAP1 POP PUSH1 0x2 PUSH1 0x0 SWAP1 SLOAD SWAP1 PUSH2 0x100 EXP SWAP1 DIV PUSH20 0xFFFFFFFFFFFFFFFFFFFFFFFFFFFFFFFFFFFFFFFF AND PUSH20 0xFFFFFFFFFFFFFFFFFFFFFFFFFFFFFFFFFFFFFFFF AND PUSH4 0xA9059CBB PUSH1 0x8 PUSH1 0x0 SWAP1 SLOAD SWAP1 PUSH2 0x100 EXP SWAP1 DIV PUSH20 0xFFFFFFFFFFFFFFFFFFFFFFFFFFFFFFFFFFFFFFFF AND PUSH1 0x64 PUSH1 0xA DUP6 PUSH2 0xFD5 SWAP2 SWAP1 PUSH2 0x1993 JUMP JUMPDEST PUSH2 0xFDF SWAP2 SWAP1 PUSH2 0x1A04 JUMP JUMPDEST PUSH1 0x40 MLOAD DUP4 PUSH4 0xFFFFFFFF AND PUSH1 0xE0 SHL DUP2 MSTORE PUSH1 0x4 ADD PUSH2 0xFFC SWAP3 SWAP2 SWAP1 PUSH2 0x1A35 JUMP JUMPDEST PUSH1 0x20 PUSH1 0x40 MLOAD DUP1 DUP4 SUB DUP2 PUSH1 0x0 DUP8 GAS CALL ISZERO DUP1 ISZERO PUSH2 0x101B JUMPI RETURNDATASIZE PUSH1 0x0 DUP1 RETURNDATACOPY RETURNDATASIZE PUSH1 0x0 REVERT JUMPDEST POP POP POP POP PUSH1 0x40 MLOAD RETURNDATASIZE PUSH1 0x1F NOT PUSH1 0x1F DUP3 ADD AND DUP3 ADD DUP1 PUSH1 0x40 MSTORE POP DUP2 ADD SWAP1 PUSH2 0x103F SWAP2 SWAP1 PUSH2 0x1A96 JUMP JUMPDEST POP PUSH1 0x2 PUSH1 0x0 SWAP1 SLOAD SWAP1 PUSH2 0x100 EXP SWAP1 DIV PUSH20 0xFFFFFFFFFFFFFFFFFFFFFFFFFFFFFFFFFFFFFFFF AND PUSH20 0xFFFFFFFFFFFFFFFFFFFFFFFFFFFFFFFFFFFFFFFF AND PUSH4 0xA9059CBB CALLER PUSH1 0x64 PUSH1 0xA DUP6 PUSH2 0x108E SWAP2 SWAP1 PUSH2 0x1993 JUMP JUMPDEST PUSH2 0x1098 SWAP2 SWAP1 PUSH2 0x1A04 JUMP JUMPDEST DUP5 PUSH2 0x10A3 SWAP2 SWAP1 PUSH2 0x1AC3 JUMP JUMPDEST PUSH1 0x40 MLOAD DUP4 PUSH4 0xFFFFFFFF AND PUSH1 0xE0 SHL DUP2 MSTORE PUSH1 0x4 ADD PUSH2 0x10C0 SWAP3 SWAP2 SWAP1 PUSH2 0x1A35 JUMP JUMPDEST PUSH1 0x20 PUSH1 0x40 MLOAD DUP1 DUP4 SUB DUP2 PUSH1 0x0 DUP8 GAS CALL ISZERO DUP1 ISZERO PUSH2 0x10DF JUMPI RETURNDATASIZE PUSH1 0x0 DUP1 RETURNDATACOPY RETURNDATASIZE PUSH1 0x0 REVERT JUMPDEST POP POP POP POP PUSH1 0x40 MLOAD RETURNDATASIZE PUSH1 0x1F NOT PUSH1 0x1F DUP3 ADD AND DUP3 ADD DUP1 PUSH1 0x40 MSTORE POP DUP2 ADD SWAP1 PUSH2 0x1103 SWAP2 SWAP1 PUSH2 0x1A96 JUMP JUMPDEST POP POP JUMPDEST PUSH1 0x0 PUSH1 0x64 PUSH1 0x4 SLOAD DUP5 PUSH2 0x1118 SWAP2 SWAP1 PUSH2 0x1993 JUMP JUMPDEST PUSH2 0x1122 SWAP2 SWAP1 PUSH2 0x1A04 JUMP JUMPDEST SWAP1 POP PUSH1 0x0 DUP2 DUP5 PUSH2 0x1132 SWAP2 SWAP1 PUSH2 0x1AC3 JUMP JUMPDEST SWAP1 POP PUSH1 0x1 PUSH1 0x0 SWAP1 SLOAD SWAP1 PUSH2 0x100 EXP SWAP1 DIV PUSH20 0xFFFFFFFFFFFFFFFFFFFFFFFFFFFFFFFFFFFFFFFF AND PUSH20 0xFFFFFFFFFFFFFFFFFFFFFFFFFFFFFFFFFFFFFFFF AND PUSH4 0x23B872DD CALLER ADDRESS DUP8 PUSH1 0x40 MLOAD DUP5 PUSH4 0xFFFFFFFF AND PUSH1 0xE0 SHL DUP2 MSTORE PUSH1 0x4 ADD PUSH2 0x1193 SWAP4 SWAP3 SWAP2 SWAP1 PUSH2 0x1BE4 JUMP JUMPDEST PUSH1 0x20 PUSH1 0x40 MLOAD DUP1 DUP4 SUB DUP2 PUSH1 0x0 DUP8 GAS CALL ISZERO DUP1 ISZERO PUSH2 0x11B2 JUMPI RETURNDATASIZE PUSH1 0x0 DUP1 RETURNDATACOPY RETURNDATASIZE PUSH1 0x0 REVERT JUMPDEST POP POP POP POP PUSH1 0x40 MLOAD RETURNDATASIZE PUSH1 0x1F NOT PUSH1 0x1F DUP3 ADD AND DUP3 ADD DUP1 PUSH1 0x40 MSTORE POP DUP2 ADD SWAP1 PUSH2 0x11D6 SWAP2 SWAP1 PUSH2 0x1A96 JUMP JUMPDEST POP PUSH1 0x1 PUSH1 0x0 SWAP1 SLOAD SWAP1 PUSH2 0x100 EXP SWAP1 DIV PUSH20 0xFFFFFFFFFFFFFFFFFFFFFFFFFFFFFFFFFFFFFFFF AND PUSH20 0xFFFFFFFFFFFFFFFFFFFFFFFFFFFFFFFFFFFFFFFF AND PUSH4 0xA9059CBB PUSH1 0x8 PUSH1 0x0 SWAP1 SLOAD SWAP1 PUSH2 0x100 EXP SWAP1 DIV PUSH20 0xFFFFFFFFFFFFFFFFFFFFFFFFFFFFFFFFFFFFFFFF AND DUP5 PUSH1 0x40 MLOAD DUP4 PUSH4 0xFFFFFFFF AND PUSH1 0xE0 SHL DUP2 MSTORE PUSH1 0x4 ADD PUSH2 0x1256 SWAP3 SWAP2 SWAP1 PUSH2 0x1A35 JUMP JUMPDEST PUSH1 0x20 PUSH1 0x40 MLOAD DUP1 DUP4 SUB DUP2 PUSH1 0x0 DUP8 GAS CALL ISZERO DUP1 ISZERO PUSH2 0x1275 JUMPI RETURNDATASIZE PUSH1 0x0 DUP1 RETURNDATACOPY RETURNDATASIZE PUSH1 0x0 REVERT JUMPDEST POP POP POP POP PUSH1 0x40 MLOAD RETURNDATASIZE PUSH1 0x1F NOT PUSH1 0x1F DUP3 ADD AND DUP3 ADD DUP1 PUSH1 0x40 MSTORE POP DUP2 ADD SWAP1 PUSH2 0x1299 SWAP2 SWAP1 PUSH2 0x1A96 JUMP JUMPDEST POP DUP1 DUP4 PUSH1 0x0 ADD SLOAD PUSH2 0x12AA SWAP2 SWAP1 PUSH2 0x1B26 JUMP JUMPDEST DUP4 PUSH1 0x0 ADD DUP2 SWAP1 SSTORE POP PUSH5 0xE8D4A51000 PUSH1 0xA SLOAD DUP5 PUSH1 0x0 ADD SLOAD PUSH2 0x12CA SWAP2 SWAP1 PUSH2 0x1993 JUMP JUMPDEST PUSH2 0x12D4 SWAP2 SWAP1 PUSH2 0x1A04 JUMP JUMPDEST DUP4 PUSH1 0x2 ADD DUP2 SWAP1 SSTORE POP DUP3 PUSH1 0x3 ADD PUSH1 0x40 MLOAD DUP1 PUSH1 0x40 ADD PUSH1 0x40 MSTORE DUP1 DUP4 DUP2 MSTORE PUSH1 0x20 ADD TIMESTAMP DUP2 MSTORE POP SWAP1 DUP1 PUSH1 0x1 DUP2 SLOAD ADD DUP1 DUP3 SSTORE DUP1 SWAP2 POP POP PUSH1 0x1 SWAP1 SUB SWAP1 PUSH1 0x0 MSTORE PUSH1 0x20 PUSH1 0x0 KECCAK256 SWAP1 PUSH1 0x2 MUL ADD PUSH1 0x0 SWAP1 SWAP2 SWAP1 SWAP2 SWAP1 SWAP2 POP PUSH1 0x0 DUP3 ADD MLOAD DUP2 PUSH1 0x0 ADD SSTORE PUSH1 0x20 DUP3 ADD MLOAD DUP2 PUSH1 0x1 ADD SSTORE POP POP CALLER PUSH20 0xFFFFFFFFFFFFFFFFFFFFFFFFFFFFFFFFFFFFFFFF AND PUSH32 0xE1FFFCC4923D04B559F4D29A8BFC6CDA04EB5B0D3C460751C2402C5C5CC9109C DUP3 PUSH1 0x40 MLOAD PUSH2 0x137A SWAP2 SWAP1 PUSH2 0x175A JUMP JUMPDEST PUSH1 0x40 MLOAD DUP1 SWAP2 SUB SWAP1 LOG2 POP POP POP POP JUMP JUMPDEST PUSH1 0x3 PUSH1 0x0 SWAP1 SLOAD SWAP1 PUSH2 0x100 EXP SWAP1 DIV PUSH20 0xFFFFFFFFFFFFFFFFFFFFFFFFFFFFFFFFFFFFFFFF AND DUP2 JUMP JUMPDEST PUSH2 0x13B6 PUSH2 0x14AE JUMP JUMPDEST PUSH1 0x0 PUSH20 0xFFFFFFFFFFFFFFFFFFFFFFFFFFFFFFFFFFFFFFFF AND DUP2 PUSH20 0xFFFFFFFFFFFFFFFFFFFFFFFFFFFFFFFFFFFFFFFF AND SUB PUSH2 0x1425 JUMPI PUSH1 0x40 MLOAD PUSH32 0x8C379A000000000000000000000000000000000000000000000000000000000 DUP2 MSTORE PUSH1 0x4 ADD PUSH2 0x141C SWAP1 PUSH2 0x1C8D JUMP JUMPDEST PUSH1 0x40 MLOAD DUP1 SWAP2 SUB SWAP1 REVERT JUMPDEST PUSH2 0x142E DUP2 PUSH2 0x152C JUMP JUMPDEST POP JUMP JUMPDEST PUSH1 0x0 DUP1 PUSH1 0xB PUSH1 0x0 DUP5 PUSH20 0xFFFFFFFFFFFFFFFFFFFFFFFFFFFFFFFFFFFFFFFF AND PUSH20 0xFFFFFFFFFFFFFFFFFFFFFFFFFFFFFFFFFFFFFFFF AND DUP2 MSTORE PUSH1 0x20 ADD SWAP1 DUP2 MSTORE PUSH1 0x20 ADD PUSH1 0x0 KECCAK256 SWAP1 POP DUP1 PUSH1 0x2 ADD SLOAD PUSH5 0xE8D4A51000 PUSH1 0xA SLOAD DUP4 PUSH1 0x0 ADD SLOAD PUSH2 0x1492 SWAP2 SWAP1 PUSH2 0x1993 JUMP JUMPDEST PUSH2 0x149C SWAP2 SWAP1 PUSH2 0x1A04 JUMP JUMPDEST PUSH2 0x14A6 SWAP2 SWAP1 PUSH2 0x1AC3 JUMP JUMPDEST SWAP2 POP POP SWAP2 SWAP1 POP JUMP JUMPDEST PUSH2 0x14B6 PUSH2 0x15F0 JUMP JUMPDEST PUSH20 0xFFFFFFFFFFFFFFFFFFFFFFFFFFFFFFFFFFFFFFFF AND PUSH2 0x14D4 PUSH2 0xCE4 JUMP JUMPDEST PUSH20 0xFFFFFFFFFFFFFFFFFFFFFFFFFFFFFFFFFFFFFFFF AND EQ PUSH2 0x152A JUMPI PUSH1 0x40 MLOAD PUSH32 0x8C379A000000000000000000000000000000000000000000000000000000000 DUP2 MSTORE PUSH1 0x4 ADD PUSH2 0x1521 SWAP1 PUSH2 0x1CF9 JUMP JUMPDEST PUSH1 0x40 MLOAD DUP1 SWAP2 SUB SWAP1 REVERT JUMPDEST JUMP JUMPDEST PUSH1 0x0 DUP1 PUSH1 0x0 SWAP1 SLOAD SWAP1 PUSH2 0x100 EXP SWAP1 DIV PUSH20 0xFFFFFFFFFFFFFFFFFFFFFFFFFFFFFFFFFFFFFFFF AND SWAP1 POP DUP2 PUSH1 0x0 DUP1 PUSH2 0x100 EXP DUP2 SLOAD DUP2 PUSH20 0xFFFFFFFFFFFFFFFFFFFFFFFFFFFFFFFFFFFFFFFF MUL NOT AND SWAP1 DUP4 PUSH20 0xFFFFFFFFFFFFFFFFFFFFFFFFFFFFFFFFFFFFFFFF AND MUL OR SWAP1 SSTORE POP DUP2 PUSH20 0xFFFFFFFFFFFFFFFFFFFFFFFFFFFFFFFFFFFFFFFF AND DUP2 PUSH20 0xFFFFFFFFFFFFFFFFFFFFFFFFFFFFFFFFFFFFFFFF AND PUSH32 0x8BE0079C531659141344CD1FD0A4F28419497F9722A3DAAFE3B4186F6B6457E0 PUSH1 0x40 MLOAD PUSH1 0x40 MLOAD DUP1 SWAP2 SUB SWAP1 LOG3 POP POP JUMP JUMPDEST PUSH1 0x0 CALLER SWAP1 POP SWAP1 JUMP JUMPDEST PUSH1 0x0 DUP1 REVERT JUMPDEST PUSH1 0x0 PUSH20 0xFFFFFFFFFFFFFFFFFFFFFFFFFFFFFFFFFFFFFFFF DUP3 AND SWAP1 POP SWAP2 SWAP1 POP JUMP JUMPDEST PUSH1 0x0 PUSH2 0x1628 DUP3 PUSH2 0x15FD JUMP JUMPDEST SWAP1 POP SWAP2 SWAP1 POP JUMP JUMPDEST PUSH2 0x1638 DUP2 PUSH2 0x161D JUMP JUMPDEST DUP2 EQ PUSH2 0x1643 JUMPI PUSH1 0x0 DUP1 REVERT JUMPDEST POP JUMP JUMPDEST PUSH1 0x0 DUP2 CALLDATALOAD SWAP1 POP PUSH2 0x1655 DUP2 PUSH2 0x162F JUMP JUMPDEST SWAP3 SWAP2 POP POP JUMP JUMPDEST PUSH1 0x0 PUSH1 0x20 DUP3 DUP5 SUB SLT ISZERO PUSH2 0x1671 JUMPI PUSH2 0x1670 PUSH2 0x15F8 JUMP JUMPDEST JUMPDEST PUSH1 0x0 PUSH2 0x167F DUP5 DUP3 DUP6 ADD PUSH2 0x1646 JUMP JUMPDEST SWAP2 POP POP SWAP3 SWAP2 POP POP JUMP JUMPDEST PUSH1 0x0 DUP2 SWAP1 POP SWAP2 SWAP1 POP JUMP JUMPDEST PUSH2 0x169B DUP2 PUSH2 0x1688 JUMP JUMPDEST DUP3 MSTORE POP POP JUMP JUMPDEST PUSH1 0x0 PUSH1 0x60 DUP3 ADD SWAP1 POP PUSH2 0x16B6 PUSH1 0x0 DUP4 ADD DUP7 PUSH2 0x1692 JUMP JUMPDEST PUSH2 0x16C3 PUSH1 0x20 DUP4 ADD DUP6 PUSH2 0x1692 JUMP JUMPDEST PUSH2 0x16D0 PUSH1 0x40 DUP4 ADD DUP5 PUSH2 0x1692 JUMP JUMPDEST SWAP5 SWAP4 POP POP POP POP JUMP JUMPDEST PUSH2 0x16E1 DUP2 PUSH2 0x1688 JUMP JUMPDEST DUP2 EQ PUSH2 0x16EC JUMPI PUSH1 0x0 DUP1 REVERT JUMPDEST POP JUMP JUMPDEST PUSH1 0x0 DUP2 CALLDATALOAD SWAP1 POP PUSH2 0x16FE DUP2 PUSH2 0x16D8 JUMP JUMPDEST SWAP3 SWAP2 POP POP JUMP JUMPDEST PUSH1 0x0 PUSH1 0x20 DUP3 DUP5 SUB SLT ISZERO PUSH2 0x171A JUMPI PUSH2 0x1719 PUSH2 0x15F8 JUMP JUMPDEST JUMPDEST PUSH1 0x0 PUSH2 0x1728 DUP5 DUP3 DUP6 ADD PUSH2 0x16EF JUMP JUMPDEST SWAP2 POP POP SWAP3 SWAP2 POP POP JUMP JUMPDEST PUSH1 0x0 PUSH1 0x40 DUP3 ADD SWAP1 POP PUSH2 0x1746 PUSH1 0x0 DUP4 ADD DUP6 PUSH2 0x1692 JUMP JUMPDEST PUSH2 0x1753 PUSH1 0x20 DUP4 ADD DUP5 PUSH2 0x1692 JUMP JUMPDEST SWAP4 SWAP3 POP POP POP JUMP JUMPDEST PUSH1 0x0 PUSH1 0x20 DUP3 ADD SWAP1 POP PUSH2 0x176F PUSH1 0x0 DUP4 ADD DUP5 PUSH2 0x1692 JUMP JUMPDEST SWAP3 SWAP2 POP POP JUMP JUMPDEST PUSH2 0x177E DUP2 PUSH2 0x161D JUMP JUMPDEST DUP3 MSTORE POP POP JUMP JUMPDEST PUSH1 0x0 PUSH1 0x20 DUP3 ADD SWAP1 POP PUSH2 0x1799 PUSH1 0x0 DUP4 ADD DUP5 PUSH2 0x1775 JUMP JUMPDEST SWAP3 SWAP2 POP POP JUMP JUMPDEST PUSH1 0x0 DUP2 SWAP1 POP SWAP2 SWAP1 POP JUMP JUMPDEST PUSH1 0x0 PUSH2 0x17C4 PUSH2 0x17BF PUSH2 0x17BA DUP5 PUSH2 0x15FD JUMP JUMPDEST PUSH2 0x179F JUMP JUMPDEST PUSH2 0x15FD JUMP JUMPDEST SWAP1 POP SWAP2 SWAP1 POP JUMP JUMPDEST PUSH1 0x0 PUSH2 0x17D6 DUP3 PUSH2 0x17A9 JUMP JUMPDEST SWAP1 POP SWAP2 SWAP1 POP JUMP JUMPDEST PUSH1 0x0 PUSH2 0x17E8 DUP3 PUSH2 0x17CB JUMP JUMPDEST SWAP1 POP SWAP2 SWAP1 POP JUMP JUMPDEST PUSH2 0x17F8 DUP2 PUSH2 0x17DD JUMP JUMPDEST DUP3 MSTORE POP POP JUMP JUMPDEST PUSH1 0x0 PUSH1 0x20 DUP3 ADD SWAP1 POP PUSH2 0x1813 PUSH1 0x0 DUP4 ADD DUP5 PUSH2 0x17EF JUMP JUMPDEST SWAP3 SWAP2 POP POP JUMP JUMPDEST PUSH1 0x0 PUSH2 0x1824 DUP3 PUSH2 0x17CB JUMP JUMPDEST SWAP1 POP SWAP2 SWAP1 POP JUMP JUMPDEST PUSH2 0x1834 DUP2 PUSH2 0x1819 JUMP JUMPDEST DUP3 MSTORE POP POP JUMP JUMPDEST PUSH1 0x0 PUSH1 0x20 DUP3 ADD SWAP1 POP PUSH2 0x184F PUSH1 0x0 DUP4 ADD DUP5 PUSH2 0x182B JUMP JUMPDEST SWAP3 SWAP2 POP POP JUMP JUMPDEST PUSH1 0x0 DUP3 DUP3 MSTORE PUSH1 0x20 DUP3 ADD SWAP1 POP SWAP3 SWAP2 POP POP JUMP JUMPDEST PUSH32 0x416D6F756E74206D7573742062652067726561746572207468616E2030000000 PUSH1 0x0 DUP3 ADD MSTORE POP JUMP JUMPDEST PUSH1 0x0 PUSH2 0x189C PUSH1 0x1D DUP4 PUSH2 0x1855 JUMP JUMPDEST SWAP2 POP PUSH2 0x18A7 DUP3 PUSH2 0x1866 JUMP JUMPDEST PUSH1 0x20 DUP3 ADD SWAP1 POP SWAP2 SWAP1 POP JUMP JUMPDEST PUSH1 0x0 PUSH1 0x20 DUP3 ADD SWAP1 POP DUP2 DUP2 SUB PUSH1 0x0 DUP4 ADD MSTORE PUSH2 0x18CB DUP2 PUSH2 0x188F JUMP JUMPDEST SWAP1 POP SWAP2 SWAP1 POP JUMP JUMPDEST PUSH32 0x416D6F756E74206D757374206265206C657373207468616E2077697468647261 PUSH1 0x0 DUP3 ADD MSTORE PUSH32 0x7761626C6520616D6F756E740000000000000000000000000000000000000000 PUSH1 0x20 DUP3 ADD MSTORE POP JUMP JUMPDEST PUSH1 0x0 PUSH2 0x192E PUSH1 0x2C DUP4 PUSH2 0x1855 JUMP JUMPDEST SWAP2 POP PUSH2 0x1939 DUP3 PUSH2 0x18D2 JUMP JUMPDEST PUSH1 0x40 DUP3 ADD SWAP1 POP SWAP2 SWAP1 POP JUMP JUMPDEST PUSH1 0x0 PUSH1 0x20 DUP3 ADD SWAP1 POP DUP2 DUP2 SUB PUSH1 0x0 DUP4 ADD MSTORE PUSH2 0x195D DUP2 PUSH2 0x1921 JUMP JUMPDEST SWAP1 POP SWAP2 SWAP1 POP JUMP JUMPDEST PUSH32 0x4E487B7100000000000000000000000000000000000000000000000000000000 PUSH1 0x0 MSTORE PUSH1 0x11 PUSH1 0x4 MSTORE PUSH1 0x24 PUSH1 0x0 REVERT JUMPDEST PUSH1 0x0 PUSH2 0x199E DUP3 PUSH2 0x1688 JUMP JUMPDEST SWAP2 POP PUSH2 0x19A9 DUP4 PUSH2 0x1688 JUMP JUMPDEST SWAP3 POP DUP3 DUP3 MUL PUSH2 0x19B7 DUP2 PUSH2 0x1688 JUMP JUMPDEST SWAP2 POP DUP3 DUP3 DIV DUP5 EQ DUP4 ISZERO OR PUSH2 0x19CE JUMPI PUSH2 0x19CD PUSH2 0x1964 JUMP JUMPDEST JUMPDEST POP SWAP3 SWAP2 POP POP JUMP JUMPDEST PUSH32 0x4E487B7100000000000000000000000000000000000000000000000000000000 PUSH1 0x0 MSTORE PUSH1 0x12 PUSH1 0x4 MSTORE PUSH1 0x24 PUSH1 0x0 REVERT JUMPDEST PUSH1 0x0 PUSH2 0x1A0F DUP3 PUSH2 0x1688 JUMP JUMPDEST SWAP2 POP PUSH2 0x1A1A DUP4 PUSH2 0x1688 JUMP JUMPDEST SWAP3 POP DUP3 PUSH2 0x1A2A JUMPI PUSH2 0x1A29 PUSH2 0x19D5 JUMP JUMPDEST JUMPDEST DUP3 DUP3 DIV SWAP1 POP SWAP3 SWAP2 POP POP JUMP JUMPDEST PUSH1 0x0 PUSH1 0x40 DUP3 ADD SWAP1 POP PUSH2 0x1A4A PUSH1 0x0 DUP4 ADD DUP6 PUSH2 0x1775 JUMP JUMPDEST PUSH2 0x1A57 PUSH1 0x20 DUP4 ADD DUP5 PUSH2 0x1692 JUMP JUMPDEST SWAP4 SWAP3 POP POP POP JUMP JUMPDEST PUSH1 0x0 DUP2 ISZERO ISZERO SWAP1 POP SWAP2 SWAP1 POP JUMP JUMPDEST PUSH2 0x1A73 DUP2 PUSH2 0x1A5E JUMP JUMPDEST DUP2 EQ PUSH2 0x1A7E JUMPI PUSH1 0x0 DUP1 REVERT JUMPDEST POP JUMP JUMPDEST PUSH1 0x0 DUP2 MLOAD SWAP1 POP PUSH2 0x1A90 DUP2 PUSH2 0x1A6A JUMP JUMPDEST SWAP3 SWAP2 POP POP JUMP JUMPDEST PUSH1 0x0 PUSH1 0x20 DUP3 DUP5 SUB SLT ISZERO PUSH2 0x1AAC JUMPI PUSH2 0x1AAB PUSH2 0x15F8 JUMP JUMPDEST JUMPDEST PUSH1 0x0 PUSH2 0x1ABA DUP5 DUP3 DUP6 ADD PUSH2 0x1A81 JUMP JUMPDEST SWAP2 POP POP SWAP3 SWAP2 POP POP JUMP JUMPDEST PUSH1 0x0 PUSH2 0x1ACE DUP3 PUSH2 0x1688 JUMP JUMPDEST SWAP2 POP PUSH2 0x1AD9 DUP4 PUSH2 0x1688 JUMP JUMPDEST SWAP3 POP DUP3 DUP3 SUB SWAP1 POP DUP2 DUP2 GT ISZERO PUSH2 0x1AF1 JUMPI PUSH2 0x1AF0 PUSH2 0x1964 JUMP JUMPDEST JUMPDEST SWAP3 SWAP2 POP POP JUMP JUMPDEST PUSH32 0x4E487B7100000000000000000000000000000000000000000000000000000000 PUSH1 0x0 MSTORE PUSH1 0x32 PUSH1 0x4 MSTORE PUSH1 0x24 PUSH1 0x0 REVERT JUMPDEST PUSH1 0x0 PUSH2 0x1B31 DUP3 PUSH2 0x1688 JUMP JUMPDEST SWAP2 POP PUSH2 0x1B3C DUP4 PUSH2 0x1688 JUMP JUMPDEST SWAP3 POP DUP3 DUP3 ADD SWAP1 POP DUP1 DUP3 GT ISZERO PUSH2 0x1B54 JUMPI PUSH2 0x1B53 PUSH2 0x1964 JUMP JUMPDEST JUMPDEST SWAP3 SWAP2 POP POP JUMP JUMPDEST PUSH1 0x0 PUSH2 0x1B65 DUP3 PUSH2 0x1688 JUMP JUMPDEST SWAP2 POP PUSH32 0xFFFFFFFFFFFFFFFFFFFFFFFFFFFFFFFFFFFFFFFFFFFFFFFFFFFFFFFFFFFFFFFF DUP3 SUB PUSH2 0x1B97 JUMPI PUSH2 0x1B96 PUSH2 0x1964 JUMP JUMPDEST JUMPDEST PUSH1 0x1 DUP3 ADD SWAP1 POP SWAP2 SWAP1 POP JUMP JUMPDEST PUSH1 0x0 DUP2 MLOAD SWAP1 POP PUSH2 0x1BB1 DUP2 PUSH2 0x16D8 JUMP JUMPDEST SWAP3 SWAP2 POP POP JUMP JUMPDEST PUSH1 0x0 PUSH1 0x20 DUP3 DUP5 SUB SLT ISZERO PUSH2 0x1BCD JUMPI PUSH2 0x1BCC PUSH2 0x15F8 JUMP JUMPDEST JUMPDEST PUSH1 0x0 PUSH2 0x1BDB DUP5 DUP3 DUP6 ADD PUSH2 0x1BA2 JUMP JUMPDEST SWAP2 POP POP SWAP3 SWAP2 POP POP JUMP JUMPDEST PUSH1 0x0 PUSH1 0x60 DUP3 ADD SWAP1 POP PUSH2 0x1BF9 PUSH1 0x0 DUP4 ADD DUP7 PUSH2 0x1775 JUMP JUMPDEST PUSH2 0x1C06 PUSH1 0x20 DUP4 ADD DUP6 PUSH2 0x1775 JUMP JUMPDEST PUSH2 0x1C13 PUSH1 0x40 DUP4 ADD DUP5 PUSH2 0x1692 JUMP JUMPDEST SWAP5 SWAP4 POP POP POP POP JUMP JUMPDEST PUSH32 0x4F776E61626C653A206E6577206F776E657220697320746865207A65726F2061 PUSH1 0x0 DUP3 ADD MSTORE PUSH32 0x6464726573730000000000000000000000000000000000000000000000000000 PUSH1 0x20 DUP3 ADD MSTORE POP JUMP JUMPDEST PUSH1 0x0 PUSH2 0x1C77 PUSH1 0x26 DUP4 PUSH2 0x1855 JUMP JUMPDEST SWAP2 POP PUSH2 0x1C82 DUP3 PUSH2 0x1C1B JUMP JUMPDEST PUSH1 0x40 DUP3 ADD SWAP1 POP SWAP2 SWAP1 POP JUMP JUMPDEST PUSH1 0x0 PUSH1 0x20 DUP3 ADD SWAP1 POP DUP2 DUP2 SUB PUSH1 0x0 DUP4 ADD MSTORE PUSH2 0x1CA6 DUP2 PUSH2 0x1C6A JUMP JUMPDEST SWAP1 POP SWAP2 SWAP1 POP JUMP JUMPDEST PUSH32 0x4F776E61626C653A2063616C6C6572206973206E6F7420746865206F776E6572 PUSH1 0x0 DUP3 ADD MSTORE POP JUMP JUMPDEST PUSH1 0x0 PUSH2 0x1CE3 PUSH1 0x20 DUP4 PUSH2 0x1855 JUMP JUMPDEST SWAP2 POP PUSH2 0x1CEE DUP3 PUSH2 0x1CAD JUMP JUMPDEST PUSH1 0x20 DUP3 ADD SWAP1 POP SWAP2 SWAP1 POP JUMP JUMPDEST PUSH1 0x0 PUSH1 0x20 DUP3 ADD SWAP1 POP DUP2 DUP2 SUB PUSH1 0x0 DUP4 ADD MSTORE PUSH2 0x1D12 DUP2 PUSH2 0x1CD6 JUMP JUMPDEST SWAP1 POP SWAP2 SWAP1 POP JUMP INVALID LOG2 PUSH5 0x6970667358 0x22 SLT KECCAK256 PUSH6 0xA856CA644692 SELFDESTRUCT 0x1F 0xEC PUSH28 0x6366FD87E17915F398FC013EBA508621D78743166764736F6C634300 ADDMOD SLT STOP CALLER "},"methodIdentifiers":{"accReward1PerShare()":"532a6159","claim()":"4e71d92d","deposit(uint256)":"b6b55f25","depositFee()":"67a52793","getFundInfo(address)":"3d835e01","lastRewardBlock()":"a9f8d181","lockIndex(address)":"3f1b7baa","lockPeriod()":"3fd8b02f","owner()":"8da5cb5b","pendingReward(address)":"f40f0f52","renounceOwnership()":"715018a6","reward1PerBlock()":"a36e8600","rewardToken1()":"6f28d688","rewardToken2()":"d61a47f1","stakingToken()":"72f702f3","totalStaked()":"817b1cd2","transferOwnership(address)":"f2fde38b","treasury()":"61d027b3","update()":"a2e62045","userInfo(address)":"1959a002","withdraw(uint256)":"2e1a7d4d"}}}}}