{
  "_format": "hh-sol-artifact-1",
  "contractName": "FarmingYield",
  "sourceName": "contracts/FarmingYield.sol",
  "abi": [
    {
      "inputs": [
        {
          "internalType": "contract IERC20",
          "name": "_stakingToken",
          "type": "address"
        },
        {
          "internalType": "contract ERC20Mock",
          "name": "_rewardToken1",
          "type": "address"
        },
        {
          "internalType": "uint256",
          "name": "_depositFee",
          "type": "uint256"
        },
        {
          "internalType": "address",
          "name": "_treasury",
          "type": "address"
        },
        {
          "internalType": "uint256",
          "name": "_reward1PerBlock",
          "type": "uint256"
        },
        {
          "internalType": "uint256",
          "name": "_lockPeriod",
          "type": "uint256"
        }
      ],
      "stateMutability": "nonpayable",
      "type": "constructor"
    },
    {
      "anonymous": false,
      "inputs": [
        {
          "indexed": true,
          "internalType": "address",
          "name": "user",
          "type": "address"
        },
        {
          "indexed": false,
          "internalType": "uint256",
          "name": "amount1",
          "type": "uint256"
        }
      ],
      "name": "Claim",
      "type": "event"
    },
    {
      "anonymous": false,
      "inputs": [
        {
          "indexed": true,
          "internalType": "address",
          "name": "user",
          "type": "address"
        },
        {
          "indexed": false,
          "internalType": "uint256",
          "name": "amount",
          "type": "uint256"
        }
      ],
      "name": "Deposit",
      "type": "event"
    },
    {
      "anonymous": false,
      "inputs": [
        {
          "indexed": true,
          "internalType": "address",
          "name": "previousOwner",
          "type": "address"
        },
        {
          "indexed": true,
          "internalType": "address",
          "name": "newOwner",
          "type": "address"
        }
      ],
      "name": "OwnershipTransferred",
      "type": "event"
    },
    {
      "anonymous": false,
      "inputs": [
        {
          "indexed": true,
          "internalType": "address",
          "name": "user",
          "type": "address"
        },
        {
          "indexed": false,
          "internalType": "uint256",
          "name": "amount",
          "type": "uint256"
        }
      ],
      "name": "Withdraw",
      "type": "event"
    },
    {
      "inputs": [],
      "name": "accReward1PerShare",
      "outputs": [
        {
          "internalType": "uint256",
          "name": "",
          "type": "uint256"
        }
      ],
      "stateMutability": "view",
      "type": "function"
    },
    {
      "inputs": [],
      "name": "claim",
      "outputs": [],
      "stateMutability": "nonpayable",
      "type": "function"
    },
    {
      "inputs": [
        {
          "internalType": "uint256",
          "name": "amount",
          "type": "uint256"
        }
      ],
      "name": "deposit",
      "outputs": [],
      "stateMutability": "nonpayable",
      "type": "function"
    },
    {
      "inputs": [],
      "name": "depositFee",
      "outputs": [
        {
          "internalType": "uint256",
          "name": "",
          "type": "uint256"
        }
      ],
      "stateMutability": "view",
      "type": "function"
    },
    {
      "inputs": [
        {
          "internalType": "address",
          "name": "_user",
          "type": "address"
        }
      ],
      "name": "getFundInfo",
      "outputs": [
        {
          "internalType": "uint256",
          "name": "",
          "type": "uint256"
        },
        {
          "internalType": "uint256",
          "name": "",
          "type": "uint256"
        }
      ],
      "stateMutability": "nonpayable",
      "type": "function"
    },
    {
      "inputs": [],
      "name": "lastRewardBlock",
      "outputs": [
        {
          "internalType": "uint256",
          "name": "",
          "type": "uint256"
        }
      ],
      "stateMutability": "view",
      "type": "function"
    },
    {
      "inputs": [
        {
          "internalType": "address",
          "name": "",
          "type": "address"
        }
      ],
      "name": "lockIndex",
      "outputs": [
        {
          "internalType": "uint256",
          "name": "",
          "type": "uint256"
        }
      ],
      "stateMutability": "view",
      "type": "function"
    },
    {
      "inputs": [],
      "name": "lockPeriod",
      "outputs": [
        {
          "internalType": "uint256",
          "name": "",
          "type": "uint256"
        }
      ],
      "stateMutability": "view",
      "type": "function"
    },
    {
      "inputs": [],
      "name": "owner",
      "outputs": [
        {
          "internalType": "address",
          "name": "",
          "type": "address"
        }
      ],
      "stateMutability": "view",
      "type": "function"
    },
    {
      "inputs": [
        {
          "internalType": "address",
          "name": "_user",
          "type": "address"
        }
      ],
      "name": "pendingReward",
      "outputs": [
        {
          "internalType": "uint256",
          "name": "",
          "type": "uint256"
        }
      ],
      "stateMutability": "view",
      "type": "function"
    },
    {
      "inputs": [],
      "name": "renounceOwnership",
      "outputs": [],
      "stateMutability": "nonpayable",
      "type": "function"
    },
    {
      "inputs": [],
      "name": "reward1PerBlock",
      "outputs": [
        {
          "internalType": "uint256",
          "name": "",
          "type": "uint256"
        }
      ],
      "stateMutability": "view",
      "type": "function"
    },
    {
      "inputs": [],
      "name": "rewardToken1",
      "outputs": [
        {
          "internalType": "contract ERC20Mock",
          "name": "",
          "type": "address"
        }
      ],
      "stateMutability": "view",
      "type": "function"
    },
    {
      "inputs": [],
      "name": "rewardToken2",
      "outputs": [
        {
          "internalType": "contract ERC20Mock",
          "name": "",
          "type": "address"
        }
      ],
      "stateMutability": "view",
      "type": "function"
    },
    {
      "inputs": [],
      "name": "stakingToken",
      "outputs": [
        {
          "internalType": "contract IERC20",
          "name": "",
          "type": "address"
        }
      ],
      "stateMutability": "view",
      "type": "function"
    },
    {
      "inputs": [],
      "name": "totalStaked",
      "outputs": [
        {
          "internalType": "uint256",
          "name": "",
          "type": "uint256"
        }
      ],
      "stateMutability": "view",
      "type": "function"
    },
    {
      "inputs": [
        {
          "internalType": "address",
          "name": "newOwner",
          "type": "address"
        }
      ],
      "name": "transferOwnership",
      "outputs": [],
      "stateMutability": "nonpayable",
      "type": "function"
    },
    {
      "inputs": [],
      "name": "treasury",
      "outputs": [
        {
          "internalType": "address",
          "name": "",
          "type": "address"
        }
      ],
      "stateMutability": "view",
      "type": "function"
    },
    {
      "inputs": [],
      "name": "update",
      "outputs": [],
      "stateMutability": "nonpayable",
      "type": "function"
    },
    {
      "inputs": [
        {
          "internalType": "address",
          "name": "",
          "type": "address"
        }
      ],
      "name": "userInfo",
      "outputs": [
        {
          "internalType": "uint256",
          "name": "amount",
          "type": "uint256"
        },
        {
          "internalType": "uint256",
          "name": "unLockAmount",
          "type": "uint256"
        },
        {
          "internalType": "uint256",
          "name": "reward1Debt",
          "type": "uint256"
        }
      ],
      "stateMutability": "view",
      "type": "function"
    },
    {
      "inputs": [
        {
          "internalType": "uint256",
          "name": "amount",
          "type": "uint256"
        }
      ],
      "name": "withdraw",
      "outputs": [],
      "stateMutability": "nonpayable",
      "type": "function"
    }
  ],
  "bytecode": "0x608060405262278d006006553480156200001857600080fd5b50604051620021473803806200214783398181016040528101906200003e91906200034c565b6200005e620000526200015160201b60201c565b6200015960201b60201c565b85600160006101000a81548173ffffffffffffffffffffffffffffffffffffffff021916908373ffffffffffffffffffffffffffffffffffffffff16021790555084600260006101000a81548173ffffffffffffffffffffffffffffffffffffffff021916908373ffffffffffffffffffffffffffffffffffffffff1602179055508360048190555082600860006101000a81548173ffffffffffffffffffffffffffffffffffffffff021916908373ffffffffffffffffffffffffffffffffffffffff16021790555081600781905550436009819055506000600a8190555080600681905550505050505050620003e8565b600033905090565b60008060009054906101000a900473ffffffffffffffffffffffffffffffffffffffff169050816000806101000a81548173ffffffffffffffffffffffffffffffffffffffff021916908373ffffffffffffffffffffffffffffffffffffffff1602179055508173ffffffffffffffffffffffffffffffffffffffff168173ffffffffffffffffffffffffffffffffffffffff167f8be0079c531659141344cd1fd0a4f28419497f9722a3daafe3b4186f6b6457e060405160405180910390a35050565b600080fd5b600073ffffffffffffffffffffffffffffffffffffffff82169050919050565b60006200024f8262000222565b9050919050565b6000620002638262000242565b9050919050565b620002758162000256565b81146200028157600080fd5b50565b60008151905062000295816200026a565b92915050565b6000620002a88262000242565b9050919050565b620002ba816200029b565b8114620002c657600080fd5b50565b600081519050620002da81620002af565b92915050565b6000819050919050565b620002f581620002e0565b81146200030157600080fd5b50565b6000815190506200031581620002ea565b92915050565b620003268162000242565b81146200033257600080fd5b50565b60008151905062000346816200031b565b92915050565b60008060008060008060c087890312156200036c576200036b6200021d565b5b60006200037c89828a0162000284565b96505060206200038f89828a01620002c9565b9550506040620003a289828a0162000304565b9450506060620003b589828a0162000335565b9350506080620003c889828a0162000304565b92505060a0620003db89828a0162000304565b9150509295509295509295565b611d4f80620003f86000396000f3fe608060405234801561001057600080fd5b50600436106101375760003560e01c8063715018a6116100b8578063a36e86001161007c578063a36e8600146102f9578063a9f8d18114610317578063b6b55f2514610335578063d61a47f114610351578063f2fde38b1461036f578063f40f0f521461038b57610137565b8063715018a61461028b57806372f702f314610295578063817b1cd2146102b35780638da5cb5b146102d1578063a2e62045146102ef57610137565b80634e71d92d116100ff5780634e71d92d14610209578063532a61591461021357806361d027b31461023157806367a527931461024f5780636f28d6881461026d57610137565b80631959a0021461013c5780632e1a7d4d1461016e5780633d835e011461018a5780633f1b7baa146101bb5780633fd8b02f146101eb575b600080fd5b6101566004803603810190610151919061165b565b6103bb565b604051610165939291906116a1565b60405180910390f35b61018860048036038101906101839190611704565b6103e5565b005b6101a4600480360381019061019f919061165b565b6107c2565b6040516101b2929190611731565b60405180910390f35b6101d560048036038101906101d0919061165b565b6109b8565b6040516101e2919061175a565b60405180910390f35b6101f36109d0565b604051610200919061175a565b60405180910390f35b6102116109d6565b005b61021b610c4c565b604051610228919061175a565b60405180910390f35b610239610c52565b6040516102469190611784565b60405180910390f35b610257610c78565b604051610264919061175a565b60405180910390f35b610275610c7e565b60405161028291906117fe565b60405180910390f35b610293610ca4565b005b61029d610cb8565b6040516102aa919061183a565b60405180910390f35b6102bb610cde565b6040516102c8919061175a565b60405180910390f35b6102d9610ce4565b6040516102e69190611784565b60405180910390f35b6102f7610d0d565b005b610301610eb1565b60405161030e919061175a565b60405180910390f35b61031f610eb7565b60405161032c919061175a565b60405180910390f35b61034f600480360381019061034a9190611704565b610ebd565b005b610359611388565b60405161036691906117fe565b60405180910390f35b6103896004803603810190610384919061165b565b6113ae565b005b6103a560048036038101906103a0919061165b565b611431565b6040516103b2919061175a565b60405180910390f35b600b6020528060005260406000206000915090508060000154908060010154908060020154905083565b60008111610428576040517f08c379a000000000000000000000000000000000000000000000000000000000815260040161041f906118b2565b60405180910390fd5b6000600b60003373ffffffffffffffffffffffffffffffffffffffff1673ffffffffffffffffffffffffffffffffffffffff16815260200190815260200160002090506000610476336107c2565b915050808311156104bc576040517f08c379a00000000000000000000000000000000000000000000000000000000081526004016104b390611944565b60405180910390fd5b6104c4610d0d565b60006104cf33611431565b9050600260009054906101000a900473ffffffffffffffffffffffffffffffffffffffff1673ffffffffffffffffffffffffffffffffffffffff1663a9059cbb600860009054906101000a900473ffffffffffffffffffffffffffffffffffffffff166064600a856105419190611993565b61054b9190611a04565b6040518363ffffffff1660e01b8152600401610568929190611a35565b6020604051808303816000875af1158015610587573d6000803e3d6000fd5b505050506040513d601f19601f820116820180604052508101906105ab9190611a96565b50600260009054906101000a900473ffffffffffffffffffffffffffffffffffffffff1673ffffffffffffffffffffffffffffffffffffffff1663a9059cbb336064600a856105fa9190611993565b6106049190611a04565b8461060f9190611ac3565b6040518363ffffffff1660e01b815260040161062c929190611a35565b6020604051808303816000875af115801561064b573d6000803e3d6000fd5b505050506040513d601f19601f8201168201806040525081019061066f9190611a96565b508383600001546106809190611ac3565b83600001819055508383600101600082825461069c9190611ac3565b9250508190555064e8d4a51000600a5484600001546106bb9190611993565b6106c59190611a04565b8360020181905550600160009054906101000a900473ffffffffffffffffffffffffffffffffffffffff1673ffffffffffffffffffffffffffffffffffffffff1663a9059cbb33866040518363ffffffff1660e01b815260040161072a929190611a35565b6020604051808303816000875af1158015610749573d6000803e3d6000fd5b505050506040513d601f19601f8201168201806040525081019061076d9190611a96565b503373ffffffffffffffffffffffffffffffffffffffff167f884edad9ce6fa2440d8a54cc123490eb96d2768479d49ff9c7366125a9424364856040516107b4919061175a565b60405180910390a250505050565b6000806000600b60008573ffffffffffffffffffffffffffffffffffffffff1673ffffffffffffffffffffffffffffffffffffffff16815260200190815260200160002090506000600c60008673ffffffffffffffffffffffffffffffffffffffff1673ffffffffffffffffffffffffffffffffffffffff1681526020019081526020016000205490505b816003018054905081101561094157600082600301828154811061087457610873611af7565b5b906000526020600020906002020160010154426108919190611ac3565b905060065481106108e3578260030182815481106108b2576108b1611af7565b5b9060005260206000209060020201600001548360010160008282546108d79190611b26565b9250508190555061092d565b81600c60008873ffffffffffffffffffffffffffffffffffffffff1673ffffffffffffffffffffffffffffffffffffffff1681526020019081526020016000208190555050610941565b50808061093990611b5a565b91505061084d565b816003018054905081036109945780600c60008773ffffffffffffffffffffffffffffffffffffffff1673ffffffffffffffffffffffffffffffffffffffff168152602001908152602001600020819055505b816001015482600001546109a89190611ac3565b8260010154935093505050915091565b600c6020528060005260406000206000915090505481565b60065481565b6000600b60003373ffffffffffffffffffffffffffffffffffffffff1673ffffffffffffffffffffffffffffffffffffffff1681526020019081526020016000209050610a21610d0d565b6000610a2c33611431565b9050600260009054906101000a900473ffffffffffffffffffffffffffffffffffffffff1673ffffffffffffffffffffffffffffffffffffffff1663a9059cbb600860009054906101000a900473ffffffffffffffffffffffffffffffffffffffff166064600a85610a9e9190611993565b610aa89190611a04565b6040518363ffffffff1660e01b8152600401610ac5929190611a35565b6020604051808303816000875af1158015610ae4573d6000803e3d6000fd5b505050506040513d601f19601f82011682018060405250810190610b089190611a96565b506064600a82610b189190611993565b610b229190611a04565b81610b2d9190611ac3565b9050600260009054906101000a900473ffffffffffffffffffffffffffffffffffffffff1673ffffffffffffffffffffffffffffffffffffffff1663a9059cbb33836040518363ffffffff1660e01b8152600401610b8c929190611a35565b6020604051808303816000875af1158015610bab573d6000803e3d6000fd5b505050506040513d601f19601f82011682018060405250810190610bcf9190611a96565b5064e8d4a51000600a548360000154610be89190611993565b610bf29190611a04565b82600201819055503373ffffffffffffffffffffffffffffffffffffffff167f47cee97cb7acd717b3c0aa1435d004cd5b3c8c57d70dbceb4e4458bbd60e39d482604051610c40919061175a565b60405180910390a25050565b600a5481565b600860009054906101000a900473ffffffffffffffffffffffffffffffffffffffff1681565b60045481565b600260009054906101000a900473ffffffffffffffffffffffffffffffffffffffff1681565b610cac6114ae565b610cb6600061152c565b565b600160009054906101000a900473ffffffffffffffffffffffffffffffffffffffff1681565b60055481565b60008060009054906101000a900473ffffffffffffffffffffffffffffffffffffffff16905090565b6000600160009054906101000a900473ffffffffffffffffffffffffffffffffffffffff1673ffffffffffffffffffffffffffffffffffffffff166370a08231306040518263ffffffff1660e01b8152600401610d6a9190611784565b602060405180830381865afa158015610d87573d6000803e3d6000fd5b505050506040513d601f19601f82011682018060405250810190610dab9190611bb7565b905060008103610dc2574360098190555050610eaf565b600060095443610dd29190611ac3565b9050600060075482610de49190611993565b9050600260009054906101000a900473ffffffffffffffffffffffffffffffffffffffff1673ffffffffffffffffffffffffffffffffffffffff166340c10f1930836040518363ffffffff1660e01b8152600401610e43929190611a35565b600060405180830381600087803b158015610e5d57600080fd5b505af1158015610e71573d6000803e3d6000fd5b505050508264e8d4a5100082610e879190611993565b610e919190611a04565b600a54610e9e9190611b26565b600a81905550436009819055505050505b565b60075481565b60095481565b60008111610f00576040517f08c379a0000000000000000000000000000000000000000000000000000000008152600401610ef7906118b2565b60405180910390fd5b6000600b60003373ffffffffffffffffffffffffffffffffffffffff1673ffffffffffffffffffffffffffffffffffffffff1681526020019081526020016000209050610f4b610d0d565b600081600001541115611106576000610f6333611431565b9050600260009054906101000a900473ffffffffffffffffffffffffffffffffffffffff1673ffffffffffffffffffffffffffffffffffffffff1663a9059cbb600860009054906101000a900473ffffffffffffffffffffffffffffffffffffffff166064600a85610fd59190611993565b610fdf9190611a04565b6040518363ffffffff1660e01b8152600401610ffc929190611a35565b6020604051808303816000875af115801561101b573d6000803e3d6000fd5b505050506040513d601f19601f8201168201806040525081019061103f9190611a96565b50600260009054906101000a900473ffffffffffffffffffffffffffffffffffffffff1673ffffffffffffffffffffffffffffffffffffffff1663a9059cbb336064600a8561108e9190611993565b6110989190611a04565b846110a39190611ac3565b6040518363ffffffff1660e01b81526004016110c0929190611a35565b6020604051808303816000875af11580156110df573d6000803e3d6000fd5b505050506040513d601f19601f820116820180604052508101906111039190611a96565b50505b60006064600454846111189190611993565b6111229190611a04565b9050600081846111329190611ac3565b9050600160009054906101000a900473ffffffffffffffffffffffffffffffffffffffff1673ffffffffffffffffffffffffffffffffffffffff166323b872dd3330876040518463ffffffff1660e01b815260040161119393929190611be4565b6020604051808303816000875af11580156111b2573d6000803e3d6000fd5b505050506040513d601f19601f820116820180604052508101906111d69190611a96565b50600160009054906101000a900473ffffffffffffffffffffffffffffffffffffffff1673ffffffffffffffffffffffffffffffffffffffff1663a9059cbb600860009054906101000a900473ffffffffffffffffffffffffffffffffffffffff16846040518363ffffffff1660e01b8152600401611256929190611a35565b6020604051808303816000875af1158015611275573d6000803e3d6000fd5b505050506040513d601f19601f820116820180604052508101906112999190611a96565b508083600001546112aa9190611b26565b836000018190555064e8d4a51000600a5484600001546112ca9190611993565b6112d49190611a04565b8360020181905550826003016040518060400160405280838152602001428152509080600181540180825580915050600190039060005260206000209060020201600090919091909150600082015181600001556020820151816001015550503373ffffffffffffffffffffffffffffffffffffffff167fe1fffcc4923d04b559f4d29a8bfc6cda04eb5b0d3c460751c2402c5c5cc9109c8260405161137a919061175a565b60405180910390a250505050565b600360009054906101000a900473ffffffffffffffffffffffffffffffffffffffff1681565b6113b66114ae565b600073ffffffffffffffffffffffffffffffffffffffff168173ffffffffffffffffffffffffffffffffffffffff1603611425576040517f08c379a000000000000000000000000000000000000000000000000000000000815260040161141c90611c8d565b60405180910390fd5b61142e8161152c565b50565b600080600b60008473ffffffffffffffffffffffffffffffffffffffff1673ffffffffffffffffffffffffffffffffffffffff1681526020019081526020016000209050806002015464e8d4a51000600a5483600001546114929190611993565b61149c9190611a04565b6114a69190611ac3565b915050919050565b6114b66115f0565b73ffffffffffffffffffffffffffffffffffffffff166114d4610ce4565b73ffffffffffffffffffffffffffffffffffffffff161461152a576040517f08c379a000000000000000000000000000000000000000000000000000000000815260040161152190611cf9565b60405180910390fd5b565b60008060009054906101000a900473ffffffffffffffffffffffffffffffffffffffff169050816000806101000a81548173ffffffffffffffffffffffffffffffffffffffff021916908373ffffffffffffffffffffffffffffffffffffffff1602179055508173ffffffffffffffffffffffffffffffffffffffff168173ffffffffffffffffffffffffffffffffffffffff167f8be0079c531659141344cd1fd0a4f28419497f9722a3daafe3b4186f6b6457e060405160405180910390a35050565b600033905090565b600080fd5b600073ffffffffffffffffffffffffffffffffffffffff82169050919050565b6000611628826115fd565b9050919050565b6116388161161d565b811461164357600080fd5b50565b6000813590506116558161162f565b92915050565b600060208284031215611671576116706115f8565b5b600061167f84828501611646565b91505092915050565b6000819050919050565b61169b81611688565b82525050565b60006060820190506116b66000830186611692565b6116c36020830185611692565b6116d06040830184611692565b949350505050565b6116e181611688565b81146116ec57600080fd5b50565b6000813590506116fe816116d8565b92915050565b60006020828403121561171a576117196115f8565b5b6000611728848285016116ef565b91505092915050565b60006040820190506117466000830185611692565b6117536020830184611692565b9392505050565b600060208201905061176f6000830184611692565b92915050565b61177e8161161d565b82525050565b60006020820190506117996000830184611775565b92915050565b6000819050919050565b60006117c46117bf6117ba846115fd565b61179f565b6115fd565b9050919050565b60006117d6826117a9565b9050919050565b60006117e8826117cb565b9050919050565b6117f8816117dd565b82525050565b600060208201905061181360008301846117ef565b92915050565b6000611824826117cb565b9050919050565b61183481611819565b82525050565b600060208201905061184f600083018461182b565b92915050565b600082825260208201905092915050565b7f416d6f756e74206d7573742062652067726561746572207468616e2030000000600082015250565b600061189c601d83611855565b91506118a782611866565b602082019050919050565b600060208201905081810360008301526118cb8161188f565b9050919050565b7f416d6f756e74206d757374206265206c657373207468616e207769746864726160008201527f7761626c6520616d6f756e740000000000000000000000000000000000000000602082015250565b600061192e602c83611855565b9150611939826118d2565b604082019050919050565b6000602082019050818103600083015261195d81611921565b9050919050565b7f4e487b7100000000000000000000000000000000000000000000000000000000600052601160045260246000fd5b600061199e82611688565b91506119a983611688565b92508282026119b781611688565b915082820484148315176119ce576119cd611964565b5b5092915050565b7f4e487b7100000000000000000000000000000000000000000000000000000000600052601260045260246000fd5b6000611a0f82611688565b9150611a1a83611688565b925082611a2a57611a296119d5565b5b828204905092915050565b6000604082019050611a4a6000830185611775565b611a576020830184611692565b9392505050565b60008115159050919050565b611a7381611a5e565b8114611a7e57600080fd5b50565b600081519050611a9081611a6a565b92915050565b600060208284031215611aac57611aab6115f8565b5b6000611aba84828501611a81565b91505092915050565b6000611ace82611688565b9150611ad983611688565b9250828203905081811115611af157611af0611964565b5b92915050565b7f4e487b7100000000000000000000000000000000000000000000000000000000600052603260045260246000fd5b6000611b3182611688565b9150611b3c83611688565b9250828201905080821115611b5457611b53611964565b5b92915050565b6000611b6582611688565b91507fffffffffffffffffffffffffffffffffffffffffffffffffffffffffffffffff8203611b9757611b96611964565b5b600182019050919050565b600081519050611bb1816116d8565b92915050565b600060208284031215611bcd57611bcc6115f8565b5b6000611bdb84828501611ba2565b91505092915050565b6000606082019050611bf96000830186611775565b611c066020830185611775565b611c136040830184611692565b949350505050565b7f4f776e61626c653a206e6577206f776e657220697320746865207a65726f206160008201527f6464726573730000000000000000000000000000000000000000000000000000602082015250565b6000611c77602683611855565b9150611c8282611c1b565b604082019050919050565b60006020820190508181036000830152611ca681611c6a565b9050919050565b7f4f776e61626c653a2063616c6c6572206973206e6f7420746865206f776e6572600082015250565b6000611ce3602083611855565b9150611cee82611cad565b602082019050919050565b60006020820190508181036000830152611d1281611cd6565b905091905056fea26469706673582212209a11626e5e1bb56f3d17bf53cb440ab90f2ea3bd7e4c6a6bb51cfc70a5d241aa64736f6c63430008120033",
  "linkReferences": {},
  "deployedLinkReferences": {}
}